:020000040800F2
:1000000000280020B10B0008010C0008010C0008BA
:10001000010C0008010C0008010C000800000000A1
:10002000000000000000000000000000010C0008BB
:10003000010C000800000000010C0008010C000881
:10004000010C0008010C0008010C0008010C00085C
:10005000010C0008010C000871010008950100085E
:10006000B9010008DD01000801020008010C0008C8
:10007000010C0008010C0008010C0008010C00082C
:10008000010C0008010C0008010C0008010C00081C
:10009000010C0008010C0008010C000825020008F2
:1000A000010C0008010C0008010C0008010C0008FC
:1000B000010C0008010C0008010C0008010C0008EC
:1000C000010C0008010C0008010C0008010C0008DC
:1000D000010C0008E50A0008F90A00080D0B0008E9
:1000E000CD020008010C000800000000010C00080F
:1000F000010C0008010C0008010C0008010C0008AC
:10010000010C0008010C0008010C0008010C00089B
:10011000010C0008010C0008010C0008010C00088B
:10012000010C0008010C0008010C0008010C00087B
:1001300010B5054C237833B9044B13B10448AFF321
:1001400000800123237010BD00000020000000008B
:100150004C0C000808B5034B1BB103490348AFF32F
:10016000008008BD00000000040000204C0C0008C6
:1001700080B500AF054B5B69044A43F0010353614E
:10018000034B1B68984700BF80BD00BF00040140BF
:100190002800002080B500AF054B5B69044A43F09E
:1001A00002035361034B5B68984700BF80BD00BFEB
:1001B000000401402800002080B500AF054B5B69BA
:1001C000044A43F004035361034B9B68984700BF04
:1001D00080BD00BF000401402800002080B500AFB2
:1001E000054B5B69044A43F008035361034BDB682A
:1001F000984700BF80BD00BF0004014028000020D8
:1002000080B500AF054B5B69044A43F010035361AE
:10021000034B1B69984700BF80BD00BF000401402D
:100220002800002080B500AF264B5B6903F0200357
:10023000002B08D0234B5B69224A43F02003536113
:10024000214B5B6998471F4B5B6903F04003002B10
:1002500008D01C4B5B691B4A43F0400353611A4BA7
:100260009B699847174B5B6903F08003002B08D00C
:10027000144B5B69134A43F080035361124BDB69F3
:100280009847104B5B6903F48073002B08D00E4B2A
:100290001B6A98470B4B5B690A4A43F480735361AE
:1002A000084B5B6903F40073002B08D0054B5B69B6
:1002B000044A43F400735361034B5B6A984700BFE1
:1002C00080BD00BF000401402800002080B500AFC1
:1002D0002D4B5B6903F48063002B08D02A4B5B69CC
:1002E000294A43F480635361284B9B6A9847264B05
:1002F0005B6903F40063002B08D0234B5B69224A3F
:1003000043F400635361214BDB6A98471E4B5B69E2
:1003100003F48053002B08D01B4B5B691A4A43F44B
:1003200080535361194B1B6B9847174B5B6903F460
:100330000053002B08D0144B5B69134A43F400535D
:100340005361124B5B6B98470F4B5B6903F480431F
:10035000002B08D00C4B5B690B4A43F4804353617C
:100360000A4B9B6B9847084B5B6903F40043002BD7
:1003700008D0054B5B69044A43F400435361034BC7
:10038000DB6B984700BF80BD0004014028000020BF
:1003900080B483B000AF0346FB80FB88B3F5004F09
:1003A00000F0A580B3F5004F00F3A380B3F5804FB4
:1003B00000F09B80B3F5804F00F39B80B3F5005FA6
:1003C00000F09180B3F5005F00F39380B3F5805F98
:1003D00000F08780B3F5805F00F38B80B3F5006F8A
:1003E0007DD0B3F5006F00F38480B3F5806F74D0D7
:1003F000B3F5806F7DDCB3F5007F6CD0B3F5007F83
:1004000077DCB3F5807F64D0B3F5807F71DC802B1F
:100410005DD0802B6DDC202B48DC002B69DD013B9F
:100420001F2B66D801A252F823F000BFB3040008C6
:10043000B7040008F3040008BB040008F304000834
:10044000F3040008F3040008BF040008F3040008E4
:10045000F3040008F3040008F3040008F3040008A0
:10046000F3040008F3040008C3040008F3040008C0
:10047000F3040008F3040008F3040008F304000880
:10048000F3040008F3040008F3040008F304000870
:10049000F3040008F3040008F3040008F304000860
:1004A000F3040008F3040008C7040008402B0CD034
:1004B0001FE000231EE004231CE008231AE00C23A5
:1004C00018E0102316E0142314E0182312E01C2374
:1004D00010E000230EE004230CE008230AE00C23C4
:1004E00008E0102306E0142304E0182302E01C2394
:1004F00000E0002318460C37BD4680BC704700BFA3
:1005000090B585B000AF786039600023BB603B6870
:100510001B88FF2B01D87B6801E07B680433BB603C
:100520003B681B881846FFF733FF03461A460F2324
:100530009340DA43BB681B681A40BB681A6000230B
:10054000FB733B689B78072B0BD03B689B78062B93
:1005500007D03B689B78052B03D03B689B78042B26
:100560000ED13B689B78043B9B005AB23B68DB781A
:100570005BB213435BB2DBB203F00F03FB7337E0F4
:100580003B689B78002B03D03B689B78082B07D1F6
:100590003B689B789B00DBB203F00F03FB7327E003
:1005A0003B689B78082B08D13B689B78013B9B00FC
:1005B000DBB203F00F03FB731AE03B689B789B00F0
:1005C000DBB203F00F03FB733B689B78022B07D170
:1005D0007B68DB683A6812881A437B68DA6007E058
:1005E0007B68DB683A681288D2431A407B68DA601D
:1005F000FC7B3B681B881846FFF7CAFE034604FADB
:1006000003F2BB681B681A43BB681A6000BF14374B
:10061000BD4690BD80B483B000AF0E4B5B689B08B5
:1006200003F00303022B0CD0022B0DD8002B02D0B9
:10063000012B03D008E0084B7B6005E0074B7B6093
:1006400002E0064B7B6000BF7B6818460C37BD4656
:1006500080BC70470010024000127A000024F400B1
:1006600080B500AFFFF7D6FF0246054B5B681B095C
:1006700003F00F030349CB5C22FA03F3184680BD55
:10068000001002406C0C000880B500AFFFF7E8FFD7
:100690000246054B5B681B0A03F007030349CB5C6A
:1006A00022FA03F3184680BD00100240640C0008D3
:1006B00080B500AFFFF7D4FF0246054B5B68DB0A4D
:1006C00003F007030349CB5C22FA03F3184680BD0D
:1006D00000100240640C000880B584B000AF786060
:1006E00039607B68594A934209D1594B9B69584AF2
:1006F00043F480439361574A3B6813601AE07B6878
:10070000554A934209D1524BDB69514A43F40033B5
:10071000D361504A3B6853600CE07B684F4A934278
:1007200008D14B4BDB694A4A43F48023D361494AE1
:100730003B6893607B68DB6843F400527B68DA6057
:100740007B68DB683A6812781A437B68DA607B68FA
:10075000DB683A68127A1A437B68DA607B68DB6888
:100760003A68527A1A437B68DA607B681B693A6898
:10077000927A1A437B681A617B685B693A68D27A1D
:100780001A437B685A617B68304A934203D1FFF772
:100790008FFFF86002E0FFF777FFF8603B685B6867
:1007A0001B01FA68B2FBF3F31901FA6813469B00C8
:1007B00013449A001A443B685B689B00B2FBF3F257
:1007C0003B685B681B01F868B0FBF3F3642000FB37
:1007D00003F3D31A1B01224AA2FB03235B0903F094
:1007E0000F030B43BB607B68BA689A603B681B7B56
:1007F000002B26D07B68DB683A68127B1A437B6843
:10080000DA607B68114A934206D1164B1B68154A81
:1008100043F02003136014E07B680F4A934206D133
:10082000104B1B680F4A43F04003136009E07B68DC
:100830000A4A934205D10B4B1B680A4A43F08003D6
:10084000136000BF1037BD4680BD00BF00380140B7
:10085000001002401C0000200044004000480040FE
:100860001F85EB5104E100E080B584B000AF7860F3
:100870007B683B4A934218D14FF40073BB81062337
:10088000BB730123FB7307F10C0319463548FFF7CF
:1008900037FE4FF48063BB810823BB7307F10C0361
:1008A00019463048FFF72CFE55E07B682E4A9342EC
:1008B00025D10423BB810623BB730123FB7307F1FE
:1008C0000C0319462748FFF71BFE0823BB810823AA
:1008D000BB7307F10C0319462248FFF711FE234BA7
:1008E0005B68DB7A002B36D00123BB810123BB730D
:1008F00007F10C0319461B48FFF702FE2BE07B684B
:100900001B4A934227D14FF48063BB810623BB73FC
:100910000123FB7307F10C0319461648FFF7F0FD9E
:100920004FF40063BB810823BB7307F10C03194626
:100930001048FFF7E5FD0D4B9B68DB7A002B0AD0D2
:100940004FF40053BB810123BB7307F10C0319461D
:100950000848FFF7D5FD00BF1037BD4680BD00BF7A
:100960000038014000080140004400401C00002005
:1009700000480040000C014080B485B000AFF86032
:10098000B9601346FB71FB79012B06D100BFFB68F0
:100990001B6803F08003002BF9D0FB68174A9342D1
:1009A0000AD1174B1B681B7A002B22D1BB681B880E
:1009B000DAB2FB685A601CE0FB68124A93420AD123
:1009C0000F4B5B681B7A002B13D1BB681B88DAB214
:1009D000FB685A600DE0FB680B4A934209D1084B53
:1009E0009B681B7A002B04D1BB681B88DAB2FB68BA
:1009F0005A6000BF1437BD4680BC704700380140C4
:100A00001C000020004400400048004080B485B035
:100A100000AFF860B9601346FB71FB79012B06D17A
:100A200000BFFB681B6803F02003002BF9D0FB68B4
:100A3000284A934215D1284B1B685B7A002B07D1BB
:100A4000FB685B689BB2DBB29AB2BB681A803BE082
:100A5000FB685B689BB203F07F039AB2BB681A80A5
:100A600032E0FB681D4A934215D11B4B5B685B7AF1
:100A7000002B07D1FB685B689BB2DBB29AB2BB6804
:100A80001A8021E0FB685B689BB203F07F039AB297
:100A9000BB681A8018E0FB68114A934214D10E4BD0
:100AA0009B685B7A002B07D1FB685B689BB2DBB26B
:100AB0009AB2BB681A8007E0FB685B689BB203F0E0
:100AC0007F039AB2BB681A8000BF1437BD4680BC52
:100AD000704700BF003801401C0000200044004067
:100AE0000048004080B500AF024B1B681B69984767
:100AF00000BF80BD1C00002080B500AF024B5B68CA
:100B00001B69984700BF80BD1C00002080B500AF66
:100B1000024B9B681B69984700BF80BD1C000020EA
:100B200080B500AF002205490548FFF76FFF01229D
:100B300002490348FFF720FF00BF80BD6800002086
:100B40000038014080B586B000AF164B9B69154A4E
:100B500043F004039361134B9B69124A43F008036B
:100B60009361104B9B690F4A43F0100393614FF45C
:100B7000E133BB600023FB7320233B740A4B7B6192
:100B800000237B7300233B730023BB730C233B7157
:100B90003B1D19460548FFF79FFD0448FFF764FE1B
:100BA000FEE700BF00100240210B000800380140A2
:100BB0000D488546AFF300800C480D490D4A0023CF
:100BC00002E0D458C4500433C4188C42F9D30A4A02
:100BD0000A4C002301E013600432A242FBD300F070
:100BE00011F8FFF7AFFFFEE700280020000000200B
:100BF00000000020840C0008000000206C00002091
:100C0000FEE7000070B500260C4D0D4C641BA410CF
:100C1000A64209D100F01AF800260A4D0A4C641BBE
:100C2000A410A64205D170BD55F8043B9847013683
:100C3000EEE755F8043B98470136F2E77C0C0008D4
:100C40007C0C00087C0C0008800C0008F8B500BF84
:100C5000F8BC08BC9E467047F8B500BFF8BC08BC9D
:040C60009E467047F5
:100C64000000000001020304000000000000000076
:080C7400010203040607080950
:040C7C005501000816
:040C80003101000836
:0400000508000BB133
:00000001FF
