:100000000C942A000C943F000C943F000C943F0089
:100010000C943F000C943F000C943F000C943F0064
:100020000C943F000C943F000C943F000C943F0054
:100030000C943F000C943F000C943F000C943F0044
:100040000C943F000C943F000C943F000C943F0034
:100050000C943F0011241FBECFE5D8E0DEBFCDBF1A
:1000600010E0A0E6B0E0ECEEFFE102C005900D92DA
:10007000AE37B107D9F70E94270F0C94F40F0C94F8
:100080000000EF92FF920F931F937B018C0120E001
:1000900030E040E05FE40E94ED0388238CF0C8016B
:1000A000B70120E030E040E05FE40E94B9010E9427
:1000B0004D049B01AC01205030404040504806C0E8
:1000C000C801B7010E944D049B01AC01B901CA01EE
:1000D0001F910F91FF90EF900895A0E0B0E0E3E74B
:1000E000F0E00C94BD0FDC012B01FA019C919230E1
:1000F00008F439C1EB018881823008F433C19430AF
:1001000069F4843009F02FC111969C91119789816F
:10011000981709F428C1ADE6B0E025C1843009F490
:1001200021C18230A9F4923009F01DC19A01AD01BC
:1001300088E0EA010990AE01E90109929E0181502F
:10014000C1F7E201898111969C918923818308C1BD
:10015000923009F407C112962D903C901397EB0151
:100160008A819B811496AD90BD90CD90DC901797BD
:10017000EC80FD800E811F819101281B390BB90194
:1001800037FF04C066277727621B730B6032710547
:100190000CF061C0121613066CF537014801062EEB
:1001A00004C096948794779467940A94D2F721E0D8
:1001B00030E040E050E004C0220F331F441F551FC1
:1001C0006A95D2F721503040404050402E213F21C7
:1001D00040235123211531054105510521F021E02E
:1001E00030E040E050E079018A01E628F72808294C
:1001F00019293CC0232BD1F1260E371E35014601AB
:10020000062E04C096948794779467940A94D2F744
:1002100021E030E040E050E004C0220F331F441FD3
:10022000551F6A95D2F721503040404050402A2156
:100230003B214C215D21211531054105510521F05E
:1002400021E030E040E050E059016A01A628B728DB
:10025000C828D9280BC0821593052CF01C01AA24AC
:10026000BB24650103C0EE24FF24870111969C91F5
:10027000D20111968C91981709F445C0992339F051
:10028000A80197012A193B094C095D0906C0A6017E
:1002900095012E193F09400B510B57FD08C01182E3
:1002A0003382228224833583468357831DC081E0B5
:1002B00081833382228288279927DC01821B930B5A
:1002C000A40BB50B84839583A683B7830DC0220F3F
:1002D000331F441F551F24833583468357838281F0
:1002E000938101979383828324813581468157814D
:1002F000DA01C9010197A109B1098F5F9F4FAF4F83
:10030000BF4328F30BC0918333822282EA0CFB1C8B
:100310000C1D1D1DE482F5820683178383E0808314
:10032000248135814681578157FF1AC0C901AA2708
:1003300097FDA095BA2F81709070A070B0705695FF
:10034000479537952795822B932BA42BB52B848328
:100350009583A683B7838281938101969383828359
:10036000DF0101C0D201CD01CDB7DEB7E2E10C94CF
:10037000D90FA0E2B0E0EFEBF1E00C94C90F698374
:100380007A838B839C832D833E834F835887E9E058
:10039000EE2EF12CEC0EFD1ECE010196B7010E944F
:1003A00076058E010F5E1F4FCE010596B8010E94A3
:1003B00076058A8991E089278A8BC701B801AE0149
:1003C000475E5F4F0E946D000E94A104A096E6E088
:1003D0000C94E50FA0E2B0E0E0EFF1E00C94C90F5F
:1003E00069837A838B839C832D833E834F835887D5
:1003F000F9E0EF2EF12CEC0EFD1ECE010196B701B7
:100400000E9476058E010F5E1F4FCE010596B80142
:100410000E947605C701B801AE01475E5F4F0E949A
:100420006D000E94A104A096E6E00C94E50FA0E206
:10043000B0E0EDE1F2E00C94BD0F69837A838B8329
:100440009C832D833E834F835887CE010196BE0146
:10045000675F7F4F0E947605CE010596BE016F5EF5
:100460007F4F0E9476059985923088F08989823085
:10047000C8F0943019F4823051F404C0843029F467
:10048000923081F48DE690E0C6C0923049F420E0CD
:100490009A858A89981321E02A87CE010996BBC0E4
:1004A000823049F420E09A858A89981321E02A8BCA
:1004B000CE014196B0C02D843E844F8458886D880B
:1004C0007E888F88988CEE24FF248701AA24BB2481
:1004D000650140E050E060E070E0E0E0F0E0C10184
:1004E00081709070892BE9F0E60CF71C081D191D2E
:1004F0009A01AB012A0D3B1D4C1D5D1D80E090E073
:10050000A0E0B0E0E614F7040805190520F481E046
:1005100090E0A0E0B0E0BA01A901480F591F6A1F9E
:100520007B1FAA0CBB1CCC1CDD1C97FE08C081E005
:1005300090E0A0E0B0E0A82AB92ACA2ADB2A3196C6
:10054000E032F10549F0660C771C881C991C569422
:10055000479437942794C3CFFA85EA892B893C893D
:100560008B859C85280F391F2E5F3F4F17C0CA010E
:1005700081709070892B61F016950795F794E79438
:1005800080E090E0A0E0B0E8E82AF92A0A2B1B2BD3
:1005900076956795579547952F5F3F4F77FDE7CF46
:1005A0000CC0440F551F661F771F17FD4160EE0CEE
:1005B000FF1C001F111F21503040403090E05907B0
:1005C00090E0690790E4790760F32B8F3C8FDB01A3
:1005D000CA018F779070A070B07080349105A1052A
:1005E000B10561F447FD0AC0E114F10401051105EC
:1005F00029F0405C5F4F6F4F7F4F40781A8EFE1797
:1006000011F081E08A8F4D8F5E8F6F8F78A383E02A
:10061000898FCE0149960E94A104A096E2E10C9434
:10062000D90FA8E1B0E0E7E1F3E00C94C50F6983CE
:100630007A838B839C832D833E834F835887B9E0D5
:10064000EB2EF12CEC0EFD1ECE010196B7010E949F
:1006500076058E010F5E1F4FCE010596B8010E94F0
:1006600076052985223008F47EC03989323010F4AD
:10067000B8017CC08A859A8989278A87243011F03D
:10068000223031F4231709F06EC06DE670E06EC0C1
:10069000343039F41D861E861F86188A1C861B86F8
:1006A00004C0323021F484E08987B7015FC02B8514
:1006B0003C858B899C89281B390B3C872B87ED84D3
:1006C000FE840F851889AD88BE88CF88D88CEA143F
:1006D000FB040C051D0540F4EE0CFF1C001F111F50
:1006E000215030403C872B8720E030E040E050E054
:1006F00080E090E0A0E0B0E460E070E0EA14FB0489
:100700000C051D0540F0282B392B4A2B5B2BEA18D2
:10071000FB080C091D09B695A79597958795EE0CD2
:10072000FF1C001F111F6F5F7F4F6F31710531F785
:10073000DA01C9018F779070A070B0708034910594
:10074000A105B10561F427FD0AC0E114F10401051A
:10075000110529F0205C3F4F4F4F5F4F20782D87C8
:100760003E874F87588BBE01675F7F4FCB010E944A
:10077000A1046896EAE00C94E10FA8E1B0E0E3EC94
:10078000F3E00C94C90F69837A838B839C832D8358
:100790003E834F83588789E0E82EF12CEC0EFD1E36
:1007A000CE010196B7010E9476058E010F5E1F4FA4
:1007B000CE010596B8010E9476058985823040F009
:1007C0008989823028F0C701B8010E94EE0501C076
:1007D0008FEF6896E6E00C94E50FA8E1B0E0E3EF58
:1007E000F3E00C94C90F69837A838B839C832D83F8
:1007F0003E834F83588789E0E82EF12CEC0EFD1ED6
:10080000CE010196B7010E9476058E010F5E1F4F43
:10081000CE010596B8010E9476058985823040F0A8
:100820008989823028F0C701B8010E94EE0501C015
:100830008FEF6896E6E00C94E50FA8E1B0E0E3E204
:10084000F4E00C94C90F69837A838B839C832D8396
:100850003E834F83588789E0E82EF12CEC0EFD1E75
:10086000CE010196B7010E9476058E010F5E1F4FE3
:10087000CE010596B8010E9476058985823040F048
:100880008989823028F0C701B8010E94EE0501C0B5
:1008900081E06896E6E00C94E50FACE0B0E0E3E5BB
:1008A000F4E00C94CD0F69837A838B839C83CE0113
:1008B0000196BE016B5F7F4F0E9476058D8182306D
:1008C00061F1823050F1843021F48E81882351F11E
:1008D0002EC02F81388537FD20C06E812F31310524
:1008E0001CF06623F9F023C08EE190E0821B930B8D
:1008F00029853A854B855C8504C056954795379583
:1009000027958A95D2F76623B1F05095409530959A
:1009100021953F4F4F4F5F4F0EC020E030E040E049
:1009200050E009C02FEF3FEF4FEF5FE704C020E03A
:1009300030E040E050E8B901CA012C96E2E00C94A6
:10094000E90FDF92EF92FF920F931F93FC01E48077
:10095000F58006811781D1808081823048F480E063
:1009600090E0A0E1B0E0E82AF92A0A2B1B2BA5C0F1
:10097000843009F49FC0823021F4EE24FF248701E3
:1009800005C0E114F1040105110519F4E0E0F0E0FF
:1009900096C0628173819FEF623879070CF05BC06B
:1009A00022E83FEF261B370B2A3131052CF020E0DF
:1009B00030E040E050E02AC0B801A701022E04C098
:1009C00076956795579547950A94D2F781E090E020
:1009D000A0E0B0E004C0880F991FAA1FBB1F2A9592
:1009E000D2F70197A109B1098E219F21A023B1233C
:1009F0000097A105B10521F081E090E0A0E0B0E012
:100A00009A01AB01282B392B4A2B5B2BDA01C90148
:100A10008F779070A070B07080349105A105B105FA
:100A200039F427FF09C0205C3F4F4F4F5F4F04C090
:100A3000215C3F4F4F4F5F4FE0E0F0E02030A0E0FF
:100A40003A07A0E04A07A0E45A0710F0E1E0F0E01E
:100A500079018A0127C06038710564F5FB01E1580E
:100A6000FF4FD801C7018F779070A070B0708034AD
:100A70009105A105B10539F4E7FE0DC080E490E0D1
:100A8000A0E0B0E004C08FE390E0A0E0B0E0E80EAA
:100A9000F91E0A1F1B1F17FF05C016950795F7942F
:100AA000E794319687E016950795F794E7948A9531
:100AB000D1F705C0EE24FF248701EFEFF0E06E2FA1
:100AC000679566276795902F9F77D794DD24D794F5
:100AD0008E2F8695492F462B582F5D29B701CA01C5
:100AE0001F910F91FF90EF90DF900895FC01DB01C3
:100AF000408151812281622F6F7770E0221F22276F
:100B0000221F9381892F880F822B282F30E0991F75
:100B10009927991F11969C93119721153105A9F5D5
:100B2000411551056105710511F482E037C082E875
:100B30009FEF13969C938E9312979A01AB0167E0F7
:100B4000220F331F441F551F6A95D1F783E08C9302
:100B50000DC0220F331F441F551F12968D919C917B
:100B60001397019713969C938E931297203080E0F1
:100B7000380780E0480780E4580758F314962D930F
:100B80003D934D935C93179708952F3F310579F46A
:100B9000411551056105710519F484E08C930895A0
:100BA00064FF03C081E08C9312C01C9210C02F57C9
:100BB000304013963C932E93129783E08C9387E0FA
:100BC000440F551F661F771F8A95D1F770641496DE
:100BD0004D935D936D937C93179708951F93DC015C
:100BE000FB019C91923008F447C08081823008F468
:100BF00043C0943051F411961C91843099F5818151
:100C0000682F70E0611B71093FC0843021F0923081
:100C100031F48230B9F18181882389F12DC0119698
:100C20001C9111978230F1F081811817D9F4129636
:100C30002D913C911397828193818217930794F0B1
:100C400028173907BCF014968D919D910D90BC9199
:100C5000A02D2481358146815781281739074A07FD
:100C60005B0718F4112341F00AC082179307A40709
:100C7000B50740F4112319F061E070E005C06FEF93
:100C80007FEF02C060E070E0CB011F910895DF9319
:100C9000CF93CDB7DEB7E9E2F0E083E38083ABE248
:100CA000B0E0EBE2F0E080818D7F8C93AAE2B0E0CF
:100CB000EAE2F0E0808188608C93AAE2B0E0EAE2A8
:100CC000F0E0808180618C93CF91DF910895DF9374
:100CD000CF930F92CDB7DEB78983EBE2F0E080814E
:100CE000829586958770882F90E08170907000972C
:100CF000A1F3ECE2F0E0898180830F90CF91DF9146
:100D00000895DF93CF930F92CDB7DEB7EBE2F0E01B
:100D100080818823DCF7ECE2F0E08081898389819F
:100D20000F90CF91DF910895DF93CF9300D0CDB78F
:100D3000DEB79A8389830AC0E981FA8180810E94A3
:100D4000670689819A8101969A838983E981FA816C
:100D50008081882389F70F900F90CF91DF910895BC
:100D6000DF93CF93CDB7DEB72A970FB6F894DEBFE7
:100D70000FBECDBF2B833C834D835E836F8378870B
:100D800089879A87CE0103969A838983E981FA81BC
:100D9000208131814281538164817581868197816F
:100DA000822F0E94670689819A81FC0138962081F2
:100DB0003181428153816481758186819781822F3F
:100DC0000E94670689819A81FC0170962081318199
:100DD000428153816481758186819781822F0E942F
:100DE000670689819A81FC01789620813181428150
:100DF00053816481758186819781822F0E94670665
:100E00002A960FB6F894DEBF0FBECDBFCF91DF910B
:100E10000895AF92BF92CF92DF92EF92FF920F931D
:100E20001F93DF93CF93CDB7DEB72A970FB6F89411
:100E3000DEBF0FBECDBFCE0103969A8389830E9489
:100E40008106282F30E040E050E060E070E080E074
:100E500090E0E981FA812083318342835383648364
:100E600075838683978389819A818C01085F1F4FE0
:100E70000E948106282F30E040E050E060E070E002
:100E800080E090E0F8012083F8013183F80142838B
:100E9000F8015383F8016483F8017583F8018683B0
:100EA000F801978389819A818C01005F1F4F0E940E
:100EB0008106282F30E040E050E060E070E080E004
:100EC00090E0F8012083F8013183F8014283F801B2
:100ED0005383F8016483F8017583F8018683F80170
:100EE000978389819A818C01085E1F4F0E94810639
:100EF000282F30E040E050E060E070E080E090E0DB
:100F0000F8012083F8013183F8014283F80153830B
:100F1000F8016483F8017583F8018683F8019783EB
:100F20002B813C814D815E816F81788589859A8591
:100F3000A22EB32EC42ED52EE62EF72E082F192F53
:100F40002A2D3B2D4C2D5D2D6E2D7F2D802F912F29
:100F50002A960FB6F894DEBF0FBECDBFCF91DF91BA
:100F60001F910F91FF90EF90DF90CF90BF90AF90C7
:100F70000895DF93CF9300D000D00F92CDB7DEB7A6
:100F80009C838B836D831A820E948106898310C0A3
:100F90008A81282F30E08B819C81FC01E20FF31FB6
:100FA000898180830E94810689838A818F5F8A83F9
:100FB0009A818D81981718F48981833249F78A8143
:100FC000282F30E08B819C81FC01E20FF31F1082FF
:100FD0000F900F900F900F900F90CF91DF91089589
:100FE000DF93CF93CDB7DEB7A1E3B0E0E1E3F0E06C
:100FF0008081807F8C93A1E3B0E0E1E3F0E0808129
:10100000806F8C93E2E3F0E08FEF8083CF91DF91EC
:101010000895DF93CF93CDB7DEB727970FB6F89437
:10102000DEBF0FBECDBF1C821B8206C1A2E3B0E0B3
:10103000E2E3F0E08081806F8C93A2E3B0E0E2E332
:10104000F0E08081482F8B819C81FC01E758FF4FA5
:101050008081282F30E081E090E0022E02C0880FCE
:10106000991F0A94E2F7809584238C931A8219823F
:10107000D8C0E0E3F0E08081282F30E089819A81B8
:10108000FC01EB58FF4F8081882F90E0A90102C03E
:10109000559547958A95E2F7CA018170907000973F
:1010A00009F0BAC0E0E3F0E08081282F30E08981C8
:1010B0009A81FC01EB58FF4F8081882F90E0A901B5
:1010C00002C0559547958A95E2F7CA0181709070E4
:1010D000009741F38B819C819F838E834E815F813A
:1010E00041305105C1F18E819F818230910534F4E8
:1010F0004E815F814115510571F08BC08E819F81BA
:101100008230910509F447C04E815F81433051051B
:1011100009F460C07EC089819A81009719F457E371
:101120005D8392C089819A818130910519F484E3AD
:101130008D838AC089819A818230910519F491E367
:101140009D8382C089819A818330910509F064C0B2
:1011500040E44D8379C089819A81009719F458E35E
:101160005D8372C089819A818130910519F485E38C
:101170008D836AC089819A818230910519F492E346
:101180009D8362C089819A818330910509F044C0B2
:1011900040E34D8359C089819A81009719F459E33E
:1011A0005D8352C089819A818130910519F486E36B
:1011B0008D834AC089819A818230910519F493E325
:1011C0009D8342C089819A818330910529F54DE341
:1011D0004D833AC089819A81009719F45FE25D835B
:1011E00033C089819A818130910519F48AE28D8317
:1011F0002BC089819A818230910519F49DE29D83EB
:1012000023C089819A818330910531F44BE24D836B
:101210001BC051E45D8318C089819A8101969A832D
:10122000898389819A81843091050CF422CF8B8146
:101230009C8101969C838B838B819C81843091055A
:101240000CF4F4CE81E48D838D8127960FB6F8944B
:10125000DEBF0FBECDBFCF91DF910895DF93CF9357
:10126000CDB7DEB781E00E94EA0BCF91DF91089500
:10127000DF93CF93CDB7DEB72E970FB6F894DEBFCE
:101280000FBECDBFA8E3B0E0E8E3F0E08081886066
:101290008C9380E090E0A8E4B2E48B879C87AD87D4
:1012A000BE876B857C858D859E8520E030E04AEF8A
:1012B00054E40E941702DC01CB018F839887A98731
:1012C000BA876F81788589859A8520E030E040E88B
:1012D0005FE30E941D0488232CF481E090E09E834C
:1012E0008D833FC06F81788589859A8520E03FEFA7
:1012F0004FE757E40E94BD0318164CF56B857C85BB
:101300008D859E8520E030E040E251E40E94170286
:10131000DC01CB01BC01CD010E944100DC01CB010D
:101320009E838D830FC088EC90E09C838B838B81A0
:101330009C810197F1F79C838B838D819E8101971E
:101340009E838D838D819E81009769F714C06F8184
:10135000788589859A850E944100DC01CB019E83B6
:101360008D838D819E819A83898389819A8101975A
:10137000F1F79A838983A8E3B0E0E8E3F0E08081A5
:10138000877F8C932E960FB6F894DEBF0FBECDBF2D
:10139000CF91DF910895DF93CF9300D0CDB7DEB723
:1013A00089836A838981813039F48A81803120F48C
:1013B0008A8180580E94EA0B8981823039F48A81BF
:1013C000803120F48A8180540E94EA0B0F900F90A4
:1013D000CF91DF910895DF93CF93CDB7DEB7E49738
:1013E0000FB6F894DEBF0FBECDBF80E090E0A0EA5C
:1013F000B1E489AB9AABABABBCAB69A97AA98BA9B9
:101400009CA920E030E04AEF54E40E941702DC017E
:10141000CB018DA79EA7AFA7B8AB6DA57EA58FA565
:1014200098A920E030E040E85FE30E941D04882393
:101430002CF481E090E09CA78BA73FC06DA57EA512
:101440008FA598A920E03FEF4FE757E40E94BD0326
:1014500018164CF569A97AA98BA99CA920E030E05F
:1014600040E251E40E941702DC01CB01BC01CD0136
:101470000E944100DC01CB019CA78BA70FC088EC28
:1014800090E09AA789A789A59AA50197F1F79AA74D
:1014900089A78BA59CA501979CA78BA78BA59CA52D
:1014A000009769F714C06DA57EA58FA598A90E9425
:1014B0004100DC01CB019CA78BA78BA59CA598A71D
:1014C0008FA38FA198A50197F1F798A78FA3A7E302
:1014D000B0E0E7E3F0E080818E608C93A8E3B0E0B9
:1014E000E8E3F0E08081817F8C9380E090E0A0E7EA
:1014F000B1E48BA39CA3ADA3BEA36BA17CA18DA1E2
:101500009EA120E030E04AEF54E40E941702DC0183
:10151000CB018F8F98A3A9A3BAA36F8D78A189A1BE
:101520009AA120E030E040E85FE30E941D04882398
:101530002CF481E090E09E8F8D8F3FC06F8D78A15D
:1015400089A19AA120E03FEF4FE757E40E94BD0335
:1015500018164CF56BA17CA18DA19EA120E030E076
:1015600040E251E40E941702DC01CB01BC01CD0135
:101570000E944100DC01CB019E8F8D8F0FC088EC53
:1015800090E09C8F8B8F8B8D9C8D0197F1F79C8FBA
:101590008B8F8D8D9E8D01979E8F8D8F8D8D9E8DC6
:1015A000009769F714C06F8D78A189A19AA10E9454
:1015B0004100DC01CB019E8F8D8F8D8D9E8D9A8F8A
:1015C000898F898D9A8D0197F1F79A8F898F0E9463
:1015D0002E0980E090E0A8ECB2E48D8B9E8BAF8B5F
:1015E000B88F6D897E898F89988D2BEA3AEA4AE215
:1015F00050E40E941702DC01CB01898B9A8BAB8BE4
:10160000BC8B69897A898B899C8920E030E040E82D
:101610005FE30E941D0488231CF481E0888B91C045
:1016200069897A898B899C8920E030E04FE753E40F
:101630000E94BD0318160CF07BC06D897E898F89CE
:10164000988D20E030E04AE754E40E941103DC0169
:10165000CB018C879D87AE87BF876C857D858E8506
:101660009F8520E030E04AEF54E40E941702DC013D
:10167000CB0188879987AA87BB87688579858A8502
:101680009B8520E030E040E85FE30E941D04882352
:101690002CF481E090E09F838E833FC0688579853C
:1016A0008A859B8520E03FEF4FE757E40E94BD030A
:1016B00018164CF56C857D858E859F8520E030E081
:1016C00040E251E40E941702DC01CB01BC01CD01D4
:1016D0000E944100DC01CB019F838E830FC088EC08
:1016E00090E09D838C838C819D810197F1F79D8390
:1016F0008C838E819F8101979F838E838E819F81B2
:10170000009769F724C0688579858A859B850E9442
:101710004100DC01CB019F838E838E819F819B835F
:101720008A838A819B810197F1F79B838A830FC00B
:1017300069897A898B899C890E944100DC01CB01EF
:10174000888B8889898389818A95F1F7898388E3E1
:101750000E94EA0B86E00E94EA0B80E80E94EA0BF6
:101760008FE00E94EA0BE4960FB6F894DEBF0FBE3E
:10177000CDBFCF91DF910895DF93CF9300D0CDB748
:10178000DEB7EAE3F0E08081EAE3F0E01082A8E36C
:10179000B0E0E8E3F0E0808184608C93A8E3B0E0FF
:1017A000E8E3F0E080818D7F8C930E943809EAE3C2
:1017B000F0E08081EAE3F0E08FEF8083A8E3B0E01F
:1017C000E8E3F0E080818B7F8C930F900F90CF91B6
:1017D000DF910895DF93CF93CDB7DEB72F970FB684
:1017E000F894DEBF0FBECDBF8F870E94BC0BEBE32A
:1017F000F0E08F858083A8E3B0E0E8E3F0E080814B
:10180000897F8C9380E090E0A0E8BFE38B879C8782
:10181000AD87BE876B857C858D859E8520E030E019
:101820004AEF54E40E941702DC01CB018F839887B2
:10183000A987BA876F81788589859A8520E030E00D
:1018400040E85FE30E941D0488232CF481E090E0CF
:101850009E838D833FC06F81788589859A8520E03E
:101860003FEF4FE757E40E94BD0318164CF56B8518
:101870007C858D859E8520E030E040E251E40E9429
:101880001702DC01CB01BC01CD010E944100DC014B
:10189000CB019E838D830FC088EC90E09C838B836B
:1018A0008B819C810197F1F79C838B838D819E8135
:1018B00001979E838D838D819E81009769F714C067
:1018C0006F81788589859A850E944100DC01CB0172
:1018D0009E838D838D819E819A83898389819A815C
:1018E0000197F1F79A8389830E9438092F960FB6E2
:1018F000F894DEBF0FBECDBFCF91DF910895DF9387
:10190000CF93CDB7DEB72F970FB6F894DEBF0FBEDB
:10191000CDBF8F870E94BC0BEBE3F0E08F85808307
:10192000A8E3B0E0E8E3F0E080818B7F8C93A8E34C
:10193000B0E0E8E3F0E0808182608C9380E090E0AA
:10194000A0E8BFE38B879C87AD87BE876B857C85CE
:101950008D859E8520E030E04AEF54E40E94170216
:10196000DC01CB018F839887A987BA876F8178853F
:1019700089859A8520E030E040E85FE30E941D04FD
:1019800088232CF481E090E09E838D833FC06F819B
:10199000788589859A8520E03FEF4FE757E40E94DC
:1019A000BD0318164CF56B857C858D859E8520E0E2
:1019B00030E040E251E40E941702DC01CB01BC019F
:1019C000CD010E944100DC01CB019E838D830FC0BD
:1019D00088EC90E09C838B838B819C810197F1F74D
:1019E0009C838B838D819E8101979E838D838D81C6
:1019F0009E81009769F714C06F81788589859A85E3
:101A00000E944100DC01CB019E838D838D819E81EC
:101A10009A83898389819A810197F1F79A838983CF
:101A20000E9438092F960FB6F894DEBF0FBECDBFC7
:101A3000CF91DF910895DF93CF9300D000D0CDB741
:101A4000DEB79C838B831A82198227C089819A8191
:101A500001969A838983EB81FC8120818B819C8113
:101A600001969C838B83822F0E947F0C89819A81AF
:101A70008031910529F482E060E00E94CB090DC01D
:101A800089819A818032910541F40E942E0981E07A
:101A900060E00E94CB091A821982EB81FC8180816F
:101AA0008823A1F60F900F900F900F90CF91DF91A8
:101AB0000895DF93CF93CDB7DEB7AA970FB6F8940A
:101AC000DEBF0FBECDBF80E40E94EA0B80E00E9423
:101AD0007F0C8EE00E947F0C81E10E947F0C82E0EF
:101AE0000E947F0C84E00E947F0C84E00E947F0CA7
:101AF00080E00E947F0C84E00E947F0C80E80E94BE
:101B0000EA0B80E00E947F0C80E090E0A0E2B1E46C
:101B10008FA398A7A9A7BAA76FA178A589A59AA509
:101B200020E030E04AEF54E40E941702DC01CB01D0
:101B30008BA39CA3ADA3BEA36BA17CA18DA19EA1F1
:101B400020E030E040E85FE30E941D0488232CF48D
:101B500081E090E09AA389A33FC06BA17CA18DA1F5
:101B60009EA120E03FEF4FE757E40E94BD03181607
:101B70004CF56FA178A589A59AA520E030E040E258
:101B800051E40E941702DC01CB01BC01CD010E948F
:101B90004100DC01CB019AA389A30FC088EC90E03F
:101BA00098A38F8F8F8D98A10197F1F798A38F8FAE
:101BB00089A19AA101979AA389A389A19AA10097C3
:101BC00069F714C06BA17CA18DA19EA10E94410068
:101BD000DC01CB019AA389A389A19AA19E8F8D8F45
:101BE0008D8D9E8D0197F1F79E8F8D8F88E40E94D9
:101BF000EA0B80E00E947F0C8AE00E947F0C85E166
:101C00000E947F0C81E10E947F0C82E10E947F0C88
:101C100084E00E947F0C80E00E947F0C80E00E94A4
:101C20007F0C81E063E00E94CB0981E00E947F0C81
:101C300080E090E0A0E2B1E4898F9A8FAB8FBC8FF7
:101C4000698D7A8D8B8D9C8D20E030E04AEF54E4D5
:101C50000E941702DC01CB018D8B9E8BAF8BB88F5E
:101C60006D897E898F89988D20E030E040E85FE3C0
:101C70000E941D0488232CF481E090E09C8B8B8BC8
:101C80003FC06D897E898F89988D20E03FEF4FE7B7
:101C900057E40E94BD0318164CF5698D7A8D8B8D23
:101CA0009C8D20E030E040E251E40E941702DC010C
:101CB000CB01BC01CD010E944100DC01CB019C8B1A
:101CC0008B8B0FC088EC90E09A8B898B89899A89DD
:101CD0000197F1F79A8B898B8B899C8901979C8B53
:101CE0008B8B8B899C89009769F714C06D897E89DD
:101CF0008F89988D0E944100DC01CB019C8B8B8BDE
:101D00008B899C89988B8F878F8598890197F1F7AC
:101D1000988B8F8780E50E94EA0B80E00E947F0C01
:101D200084E10E947F0C8BE00E947F0C8BE10E947B
:101D30007F0C8CE10E947F0C88E20E947F0C80E087
:101D40000E947F0C80E00E947F0C81E065E00E9491
:101D5000CB0982E00E947F0C80E090E0A0E2B1E439
:101D60008B879C87AD87BE876B857C858D859E859F
:101D700020E030E04AEF54E40E941702DC01CB017E
:101D80008F839887A987BA876F81788589859A8597
:101D900020E030E040E85FE30E941D0488232CF43B
:101DA00081E090E09E838D833FC06F817885898537
:101DB0009A8520E03FEF4FE757E40E94BD031816D5
:101DC0004CF56B857C858D859E8520E030E040E27A
:101DD00051E40E941702DC01CB01BC01CD010E943D
:101DE0004100DC01CB019E838D830FC088EC90E025
:101DF0009C838B838B819C810197F1F79C838B83E0
:101E00008D819E8101979E838D838D819E81009718
:101E100069F714C06F81788589859A850E94410091
:101E2000DC01CB019E838D838D819E819A83898382
:101E300089819A810197F1F79A838983AA960FB6CF
:101E4000F894DEBF0FBECDBFCF91DF910895DF9331
:101E5000CF93CDB7DEB76E970FB6F894DEBF0FBE47
:101E6000CDBF0E94EB090E9447060E94F00780E662
:101E700090E00E941B0D80E090E0A0E2B1E48B872F
:101E80009C87AD87BE876B857C858D859E8520E090
:101E900030E04AEF54E40E941702DC01CB018F834B
:101EA0009887A987BA876F81788589859A8520E088
:101EB00030E040E85FE30E941D0488232CF481E0B9
:101EC00090E09E838D833FC06F81788589859A8558
:101ED00020E03FEF4FE757E40E94BD0318164CF592
:101EE0006B857C858D859E8520E030E040E251E465
:101EF0000E941702DC01CB01BC01CD010E94410010
:101F0000DC01CB019E838D830FC088EC90E09C8325
:101F10008B838B819C810197F1F79C838B838D81CF
:101F20009E8101979E838D838D819E81009769F7A5
:101F300014C06F81788589859A850E944100DC01F3
:101F4000CB019E838D838D819E819A838983898134
:101F50009A810197F1F79A8389830E944706CE01FF
:101F60000F9660E10E94B90782E060E00E94CB0911
:101F7000CE010F960E941B0DF2CF2F923F924F92EF
:101F80005F926F927F928F929F92AF92BF92CF9209
:101F9000DF92EF92FF920F931F93CF93DF93CDB712
:101FA000DEB7CA1BDB0B0FB6F894DEBF0FBECDBF8A
:101FB00009942A88398848885F846E847D848C845B
:101FC0009B84AA84B984C884DF80EE80FD800C8164
:101FD0001B81AA81B981CE0FD11D0FB6F894DEBF47
:0C1FE0000FBECDBFED010895F894FFCFB7
:101FEC00554152542053656374696F6E00000000B4
:0E1FFC000000000000000102030405060700BB
:00000001FF
