:020000040800F2
:10000000002800204D0D00089D0D00089D0D0008E2
:100010009D0D00089D0D00089D0D000800000000CA
:100020000000000000000000000000009D0D00081E
:100030009D0D0008000000009D0D00089D0D0008AA
:100040009D0D00089D0D00089D0D00089D0D0008E8
:100050009D0D00089D0D00089D0D00089D0D0008D8
:100060009D0D00089D0D00089D0D00089D0D0008C8
:100070009D0D00089D0D00089D0D00089D0D0008B8
:100080009D0D00089D0D00089D0D00089D0D0008A8
:100090009D0D00089D0D00089D0D00089D0D000898
:1000A0009D0D00089D0D00089D0D00089D0D000888
:1000B0009D0D00089D0D00089D0D00089D0D000878
:1000C0009D0D00089D0D00089D0D00089D0D000868
:1000D0009D0D00089D0D00089D0D00089D0D000858
:1000E0009D0D00089D0D0008000000009D0D0008FA
:1000F0009D0D00089D0D00089D0D00089D0D000838
:100100009D0D00089D0D00089D0D00089D0D000827
:100110009D0D00089D0D00089D0D00089D0D000817
:100120009D0D00089D0D00089D0D00089D0D000807
:1001300010B5054C237833B9044B13B10448AFF321
:1001400000800123237010BD0C000020000000007F
:10015000E80D000808B5034B1BB103490348AFF392
:10016000008008BD0000000010000020E80D00081D
:1001700080B500AF2F4B01221A802E4B02229A70BD
:100180002C492D4800F026FC2A4B02221A80294BCC
:1001900002229A702749284800F01CFC254B0822AF
:1001A0001A80244B02229A702249234800F012FC44
:1001B000204B10221A801F4B02229A701D491E48A4
:1001C00000F008FC1B4B20221A801A4B04229A7064
:1001D000184B0122DA701749174800F0FBFB154B4A
:1001E00040221A80134B04229A70124B0122DA70BB
:1001F0001049114800F0EEFB0E4B80221A800D4B87
:1002000004229A700B4B0122DA700A490A4800F066
:10021000E1FB084B4FF480721A80064B04229A705F
:10022000044B0122DA700349034800F0D3FB00BFFE
:1002300080BD00BF28000020000C014080B582B0C6
:1002400000AF00237B60ACE001222021594800F080
:1002500050FC01224021574800F04BFC0122802134
:10026000544800F046FC01224FF48071514800F0E0
:1002700040FC514A7B6832F81330002219464D4841
:1002800000F037FC00233B6084E04C4A3B68134499
:100290001B789BB21946474800F042FC0346002BEE
:1002A0006CD100BF454A3B6813441B789BB219468A
:1002B000404800F035FC0346002BF3D07B68032B4D
:1002C0005AD801A252F823F0D9020008010300080D
:1002D00029030008510300083B68002B01D1372394
:1002E00064E03B68012B01D134235FE03B68022BC3
:1002F00001D131235AE03B68032B41D1402355E023
:100300003B68002B01D1382350E03B68012B01D121
:1003100035234BE03B68022B01D1322346E03B689A
:10032000032B2FD1302341E03B68002B01D139232F
:100330003CE03B68012B01D1362337E03B68022BC0
:1003400001D1332332E03B68032B1DD13D232DE047
:100350003B68002B01D12F2328E03B68012B01D102
:100360002A2323E03B68022B01D12D231EE03B68AA
:10037000032B0BD12B2319E0412317E000BF06E02C
:1003800000BF04E000BF02E000BF00E000BF3B6828
:1003900001333B603B68032B7FF777AF7B6801330A
:1003A0007B607B68032B7FF74FAF412318460837EC
:1003B000BD4680BD000C014004000020000000206C
:1003C00080B485B000AF78600023FB600BE00023B1
:1003D000BB6002E0BB680133BB60BB68FE2BF9D990
:1003E000FB680133FB60FA687B689A42EFD300BF79
:1003F00000BF1437BD4680BC704780B500AF0120F8
:1004000000F0BCF900BF80BD80B500AF01224FF401
:100410008061074800F06DFB3220FFF7D1FF00221A
:100420004FF48061024800F064FB00BF80BD00BF54
:100430000008014080B582B000AF03460A46FB7158
:100440001346BB71FB79012B08D1BB790F2B05D863
:10045000BB79803BDBB2184600F090F9FB79022BA8
:1004600008D1BB790F2B05D8BB79403BDBB21846CE
:1004700000F084F900BF0837BD4680BD80B500AFED
:100480001420FFF79DFF5D4B4FF480621A805B4B99
:1004900004229A70594B0122DA705849584800F0EA
:1004A00099FA564B4FF480721A80544B04229A707A
:1004B000524B0122DA705149514800F08BFA4F4BF0
:1004C0004FF400721A804D4B04229A704B4B01225C
:1004D000DA704A494A4800F07DFA00224FF4806100
:1004E000474800F006FB00224FF48071444800F0BA
:1004F00000FB00224FF40071414800F0FAFA3F4B34
:1005000001221A803D4B04229A703C4B0122DA7082
:100510003A493B4800F05EFA384B02221A80374BCA
:1005200004229A70354B0122DA703449344800F0C5
:1005300051FA324B04221A80304B04229A702F4B0E
:100540000122DA702D492E4800F044FA2B4B082284
:100550001A802A4B04229A70284B0122DA7027490C
:10056000274800F037FA254B10221A80234B04222B
:100570009A70224B0122DA702049214800F02AFAB1
:100580001E4B20221A801D4B04229A701B4B012205
:10059000DA701A491A4800F01DFA184B40221A80E6
:1005A000164B04229A70154B0122DA701349144835
:1005B00000F010FA114B80221A80104B04229A701E
:1005C0000E4B0122DA700D490D4800F003FA0F209E
:1005D000FFF7F6FEFFF711FF0120FFF7F1FE3820CD
:1005E00000F0CCF8062000F0C9F8802000F0C6F832
:1005F0000F2000F0C3F800BF80BD00BF2C0000201A
:100600000008014080B500AF5A4B01221A80594BB7
:1006100001229A705749584800F0DCF9554B0222E4
:100620001A80544B01229A705249534800F0D2F973
:10063000504B04221A804F4B01229A704D494E486C
:1006400000F0C8F94B4B08221A804A4B01229A70DD
:100650004849494800F0BEF9464B10221A80454BE4
:1006600001229A704349444800F0B4F9414B2022DA
:100670001A80404B01229A703E493F4800F0AAF987
:100680003C4B40221A803B4B01229A7039493A4830
:1006900000F0A0F9374B80221A80364B01229A7065
:1006A0003449354800F096F901224FF40071324880
:1006B00000F01FFA00224FF400712F4800F019FAE1
:1006C000FFF7A2FE2B4B01221A802A4B04229A70BC
:1006D0002849294800F07EF9264B02221A80254B32
:1006E00004229A702349244800F074F9214B042213
:1006F0001A80204B04229A701E491F4800F06AF9A4
:100700001C4B08221A801B4B04229A7019491A4864
:1007100000F060F9174B10221A80164B04229A70D1
:100720001449154800F056F9124B20221A80114B3B
:1007300004229A700F49104800F04CF90D4B4022EA
:100740001A800C4B04229A700A490B4800F042F9B7
:10075000084B80221A80074B04229A7005490648EC
:1007600000F038F900224FF40071034800F0C1F99D
:1007700000BF80BD2C0000200008014080B582B081
:1007800000AF0346FB71FFF73DFFFB799BB21946B3
:100790000B4800F0A0F900224FF40071084800F067
:1007A000A8F900224FF48071054800F0A2F9012059
:1007B000FFF706FEFFF728FE00BF0837BD4680BDE5
:1007C0000008014080B582B000AF0346FB71FB79A1
:1007D0009BB219460B4800F07EF900224FF40071DD
:1007E000084800F086F901224FF48071054800F0B6
:1007F00080F90120FFF7E4FDFFF706FE00BF083790
:10080000BD4680BD0008014080B584B000AF78606F
:100810000023FB601CE0FB680133FB607B685A1C13
:100820007A601B781846FFF7CDFFFB68102B04D1C8
:1008300000210220FFF7FEFD0AE0FB68202B07D114
:10084000FFF7DBFD00210120FFF7F4FD0023FB6033
:100850007B681B78002BDED100BF00BF1037BD4680
:1008600080BD000080B483B000AF0346FB80FB88EE
:10087000B3F5004F00F0A580B3F5004F00F3A3805F
:10088000B3F5804F00F09B80B3F5804F00F39B8061
:10089000B3F5005F00F09180B3F5005F00F3938043
:1008A000B3F5805F00F08780B3F5805F00F38B8045
:1008B000B3F5006F7DD0B3F5006F00F38480B3F51E
:1008C000806F74D0B3F5806F7DDCB3F5007F6CD0A2
:1008D000B3F5007F77DCB3F5807F64D0B3F5807F1C
:1008E00071DC802B5DD0802B6DDC202B48DC002B55
:1008F00069DD013B1F2B66D801A252F823F000BF2F
:10090000870900088B090008C70900088F0900083B
:10091000C7090008C7090008C709000893090008AB
:10092000C7090008C7090008C7090008C709000867
:10093000C7090008C7090008C70900089709000887
:10094000C7090008C7090008C7090008C709000847
:10095000C7090008C7090008C7090008C709000837
:10096000C7090008C7090008C7090008C709000827
:10097000C7090008C7090008C70900089B09000843
:10098000402B0CD01FE000231EE004231CE00823B2
:100990001AE00C2318E0102316E0142314E01823A7
:1009A00012E01C2310E000230EE004230CE00823D7
:1009B0000AE00C2308E0102306E0142304E01823C7
:1009C00002E01C2300E0002318460C37BD4680BC23
:1009D000704700BF90B585B000AF786039600023E4
:1009E000BB603B681B88FF2B01D87B6801E07B68FC
:1009F0000433BB603B681B881846FFF733FF034690
:100A00001A460F239340DA43BB681B681A40BB6841
:100A10001A600023FB733B689B78072B0BD03B6865
:100A20009B78062B07D03B689B78052B03D03B684F
:100A30009B78042B0ED13B689B78043B9B005AB2F9
:100A40003B68DB785BB213435BB2DBB203F00F03AE
:100A5000FB732EE03B689B78022B0ED17B68DB6832
:100A60003A6812881A437B68DA603B689B789B007F
:100A7000DBB203F00F03FB731BE03B689B78032B97
:100A800010D17B68DB683A681288D2431A407B68D1
:100A9000DA603B689B78013B9B00DBB203F00F03FD
:100AA000FB7306E03B689B789B00DBB203F00F030F
:100AB000FB73FC7B3B681B881846FFF7D3FE03469D
:100AC00004FA03F2BB681B681A43BB681A6000BFD4
:100AD0001437BD4690BD80B483B000AF78600B463C
:100AE0007B807A887B68DA6000BF0C37BD4680BCAB
:100AF000704780B483B000AF78600B467B801346AC
:100B00007B707B78012B03D17A887B681A6102E0C5
:100B10007A887B685A6100BF0C37BD4680BC70473D
:100B200080B483B000AF78600B467B807B689A68A6
:100B30007B881340002B01D0012300E000231846DE
:100B40000C37BD4680BC704780B485B000AF78607C
:100B50000023FB600BE00023BB6002E0BB680133B5
:100B6000BB60BB68FE2BF9D9FB680133FB60FA68F8
:100B70007B689A42EFD300BF00BF1437BD4680BCEC
:100B80007047000080B500AF314B4FF400721A80FF
:100B90002F4B04229A702E4B0122DA702C492D48DB
:100BA000FFF718FF2A4B4FF480621A80284B04226B
:100BB0009A70274B0122DA7025492648FFF70AFF71
:100BC000234B4FF400621A80214B04229A70204B71
:100BD0000122DA701E491F48FFF7FCFE1C4B4FF440
:100BE00080521A801A4B04229A70194B0122DA7033
:100BF00017491848FFF7EEFE154B4FF400521A80C4
:100C0000134B04229A70124B0122DA7010491148DA
:100C1000FFF7E0FE0E4B4FF480421A800C4B04228B
:100C20009A700B4B0122DA7009490A48FFF7D2FE8D
:100C3000074B4FF400421A80054B04229A70044B74
:100C40000122DA7002490348FFF7C4FE00BF80BDED
:100C500028000020000C014080B588B000AF354B63
:100C60009B69344A43F004039361324B9B69314AD8
:100C700043F008039361FFF701FCFFF783FF2E4861
:100C8000FFF7C2FD1E20FFF75FFFFFF7B6FB2B4A01
:100C900007F1100307CA03C31A800233120C1A703B
:100CA000274A3B1D07CA03C31A800233120C1A706D
:100CB0000023FB771BE0FB7F07F12002134413F8AE
:100CC000103C1846FFF77EFDFB7F07F1200213441E
:100CD00013F81C3C9BB25B029BB219461948FFF704
:100CE000FAFE6420FFF730FFFB7F0133FB77FB7FC9
:100CF0000A2BE0D9FFF781FBFFF73AFA1248FFF71A
:100D000083FD1E20FFF720FFFFF777FBFFF796FA22
:100D10000346BB77BB7F402B02D0412B03D107E0BA
:100D2000FFF76BFB04E0BB7F1846FFF74BFD00BFEE
:100D3000ECE700BF00100240000E0008180E00088B
:100D4000240E0008000C0140080E00080D488546DE
:100D5000AFF300800C480D490D4A002302E0D4583F
:100D6000C4500433C4188C42F9D30A4A0A4C0023F5
:100D700001E013600432A242FBD300F011F8FFF748
:100D80006BFFFEE700280020000000200C00002080
:100D9000380E00080C00002030000020FEE70000A4
:100DA00070B500260C4D0D4C641BA410A64209D151
:100DB00000F01AF800260A4D0A4C641BA410A64243
:100DC00005D170BD55F8043B98470136EEE755F85C
:100DD000043B98470136F2E7300E0008300E000859
:100DE000300E0008340E0008F8B500BFF8BC08BC8F
:100DF0009E467047F8B500BFF8BC08BC9E467047D9
:100E000031323334000000004B6579706164206931
:100E1000732072656164790030313233343536378E
:100E200038393000017924304C12021900100100C9
:040E30005501000860
:040E34003101000880
:0C0E3800010208102000400080000001B2
:0400000508000D4D95
:00000001FF
