:100000000C942A000C9447000C9447000C94470071
:100010000C9447000C9447000C9447000C94470044
:100020000C9447000C9447000C94C90A0C94FB0AEA
:100030000C940B080C94470D0C9447000C94740D11
:100040000C9447000C9447000C9447000C94470014
:100050000C94470011241FBECFE5D8E0DEBFCDBF12
:1000600010E0A0E6B0E0EAE7FBE202C005900D92E6
:10007000A037B107D9F710E0A0E7B0E001C01D92AA
:10008000A138B107E1F70E9446150C94BB150C94FA
:100090000000EF92FF920F931F937B018C0120E0F1
:1000A00030E040E05FE40E94F50388238CF0C80153
:1000B000B70120E030E040E05FE40E94C1010E940F
:1000C00055049B01AC01205030404040504806C0D0
:1000D000C801B7010E9455049B01AC01B901CA01D6
:1000E0001F910F91FF90EF900895A0E0B0E0EBE733
:1000F000F0E00C948415DC012B01FA019C91923004
:1001000008F439C1EB018881823008F433C194309E
:1001100069F4843009F02FC111969C91119789815F
:10012000981709F428C1A0E6B0E025C1843009F48D
:1001300021C18230A9F4923009F01DC19A01AD01AC
:1001400088E0EA010990AE01E90109929E0181501F
:10015000C1F7E201898111969C918923818308C1AD
:10016000923009F407C112962D903C901397EB0141
:100170008A819B811496AD90BD90CD90DC901797AD
:10018000EC80FD800E811F819101281B390BB90184
:1001900037FF04C066277727621B730B6032710537
:1001A0000CF061C0121613066CF537014801062EDB
:1001B00004C096948794779467940A94D2F721E0C8
:1001C00030E040E050E004C0220F331F441F551FB1
:1001D0006A95D2F721503040404050402E213F21B7
:1001E00040235123211531054105510521F021E01E
:1001F00030E040E050E079018A01E628F72808293C
:1002000019293CC0232BD1F1260E371E350146019A
:10021000062E04C096948794779467940A94D2F734
:1002200021E030E040E050E004C0220F331F441FC3
:10023000551F6A95D2F721503040404050402A2146
:100240003B214C215D21211531054105510521F04E
:1002500021E030E040E050E059016A01A628B728CB
:10026000C828D9280BC0821593052CF01C01AA249C
:10027000BB24650103C0EE24FF24870111969C91E5
:10028000D20111968C91981709F445C0992339F041
:10029000A80197012A193B094C095D0906C0A6016E
:1002A00095012E193F09400B510B57FD08C01182D3
:1002B0003382228224833583468357831DC081E0A5
:1002C00081833382228288279927DC01821B930B4A
:1002D000A40BB50B84839583A683B7830DC0220F2F
:1002E000331F441F551F24833583468357838281E0
:1002F000938101979383828324813581468157813D
:10030000DA01C9010197A109B1098F5F9F4FAF4F72
:10031000BF4328F30BC0918333822282EA0CFB1C7B
:100320000C1D1D1DE482F5820683178383E0808304
:10033000248135814681578157FF1AC0C901AA27F8
:1003400097FDA095BA2F81709070A070B0705695EF
:10035000479537952795822B932BA42BB52B848318
:100360009583A683B7838281938101969383828349
:10037000DF0101C0D201CD01CDB7DEB7E2E10C94BF
:10038000A015A0E2B0E0E7ECF1E00C9490156983D1
:100390007A838B839C832D833E834F835887E9E048
:1003A000EE2EF12CEC0EFD1ECE010196B7010E943F
:1003B0007E058E010F5E1F4FCE010596B8010E948B
:1003C0007E058A8991E089278A8BC701B801AE0131
:1003D000475E5F4F0E9475000E94A904A096E6E068
:1003E0000C94AC15A0E2B0E0E8EFF1E00C949015AD
:1003F00069837A838B839C832D833E834F835887C5
:10040000F9E0EF2EF12CEC0EFD1ECE010196B701A6
:100410000E947E058E010F5E1F4FCE010596B8012A
:100420000E947E05C701B801AE01475E5F4F0E9482
:1004300075000E94A904A096E6E00C94AC15A0E219
:10044000B0E0E5E2F2E00C94841569837A838B8353
:100450009C832D833E834F835887CE010196BE0136
:10046000675F7F4F0E947E05CE010596BE016F5EDD
:100470007F4F0E947E059985923088F0898982306D
:10048000C8F0943019F4823051F404C0843029F457
:10049000923081F480E690E0C6C0923049F420E0CA
:1004A0009A858A89981321E02A87CE010996BBC0D4
:1004B000823049F420E09A858A89981321E02A8BBA
:1004C000CE014196B0C02D843E844F8458886D88FB
:1004D0007E888F88988CEE24FF248701AA24BB2471
:1004E000650140E050E060E070E0E0E0F0E0C10174
:1004F00081709070892BE9F0E60CF71C081D191D1E
:100500009A01AB012A0D3B1D4C1D5D1D80E090E062
:10051000A0E0B0E0E614F7040805190520F481E036
:1005200090E0A0E0B0E0BA01A901480F591F6A1F8E
:100530007B1FAA0CBB1CCC1CDD1C97FE08C081E0F5
:1005400090E0A0E0B0E0A82AB92ACA2ADB2A3196B6
:10055000E032F10549F0660C771C881C991C569412
:10056000479437942794C3CFFA85EA892B893C892D
:100570008B859C85280F391F2E5F3F4F17C0CA01FE
:1005800081709070892B61F016950795F794E79428
:1005900080E090E0A0E0B0E8E82AF92A0A2B1B2BC3
:1005A00076956795579547952F5F3F4F77FDE7CF36
:1005B0000CC0440F551F661F771F17FD4160EE0CDE
:1005C000FF1C001F111F21503040403090E05907A0
:1005D00090E0690790E4790760F32B8F3C8FDB0193
:1005E000CA018F779070A070B07080349105A1051A
:1005F000B10561F447FD0AC0E114F10401051105DC
:1006000029F0405C5F4F6F4F7F4F40781A8EFE1786
:1006100011F081E08A8F4D8F5E8F6F8F78A383E01A
:10062000898FCE0149960E94A904A096E2E10C941C
:10063000A015A8E1B0E0EFE1F3E00C948C1569831C
:100640007A838B839C832D833E834F835887B9E0C5
:10065000EB2EF12CEC0EFD1ECE010196B7010E948F
:100660007E058E010F5E1F4FCE010596B8010E94D8
:100670007E052985223008F47EC03989323010F495
:10068000B8017CC08A859A8989278A87243011F02D
:10069000223031F4231709F06EC060E670E06EC0BE
:1006A000343039F41D861E861F86188A1C861B86E8
:1006B00004C0323021F484E08987B7015FC02B8504
:1006C0003C858B899C89281B390B3C872B87ED84C3
:1006D000FE840F851889AD88BE88CF88D88CEA142F
:1006E000FB040C051D0540F4EE0CFF1C001F111F40
:1006F000215030403C872B8720E030E040E050E044
:1007000080E090E0A0E0B0E460E070E0EA14FB0478
:100710000C051D0540F0282B392B4A2B5B2BEA18C2
:10072000FB080C091D09B695A79597958795EE0CC2
:10073000FF1C001F111F6F5F7F4F6F31710531F775
:10074000DA01C9018F779070A070B0708034910584
:10075000A105B10561F427FD0AC0E114F10401050A
:10076000110529F0205C3F4F4F4F5F4F20782D87B8
:100770003E874F87588BBE01675F7F4FCB010E943A
:10078000A9046896EAE00C94A815A8E1B0E0EBECA7
:10079000F3E00C94901569837A838B839C832D837B
:1007A0003E834F83588789E0E82EF12CEC0EFD1E26
:1007B000CE010196B7010E947E058E010F5E1F4F8C
:1007C000CE010596B8010E947E058985823040F0F1
:1007D0008989823028F0C701B8010E94F60501C05E
:1007E0008FEF6896E6E00C94AC15A8E1B0E0EBEF73
:1007F000F3E00C94901569837A838B839C832D831B
:100800003E834F83588789E0E82EF12CEC0EFD1EC5
:10081000CE010196B7010E947E058E010F5E1F4F2B
:10082000CE010596B8010E947E058985823040F090
:100830008989823028F0C701B8010E94F60501C0FD
:100840008FEF6896E6E00C94AC15A8E1B0E0EBE21F
:10085000F4E00C94901569837A838B839C832D83B9
:100860003E834F83588789E0E82EF12CEC0EFD1E65
:10087000CE010196B7010E947E058E010F5E1F4FCB
:10088000CE010596B8010E947E058985823040F030
:100890008989823028F0C701B8010E94F60501C09D
:1008A00081E06896E6E00C94AC15ACE0B0E0EBE5D6
:1008B000F4E00C94941569837A838B839C83CE0136
:1008C0000196BE016B5F7F4F0E947E058D81823055
:1008D00061F1823050F1843021F48E81882351F10E
:1008E0002EC02F81388537FD20C06E812F31310514
:1008F0001CF06623F9F023C08EE190E0821B930B7D
:1009000029853A854B855C8504C056954795379572
:1009100027958A95D2F76623B1F05095409530958A
:1009200021953F4F4F4F5F4F0EC020E030E040E039
:1009300050E009C02FEF3FEF4FEF5FE704C020E02A
:1009400030E040E050E8B901CA012C96E2E00C9496
:10095000B015DF92EF92FF920F931F93FC01E4809A
:10096000F58006811781D1808081823048F480E053
:1009700090E0A0E1B0E0E82AF92A0A2B1B2BA5C0E1
:10098000843009F49FC0823021F4EE24FF248701D3
:1009900005C0E114F1040105110519F4E0E0F0E0EF
:1009A00096C0628173819FEF623879070CF05BC05B
:1009B00022E83FEF261B370B2A3131052CF020E0CF
:1009C00030E040E050E02AC0B801A701022E04C088
:1009D00076956795579547950A94D2F781E090E010
:1009E000A0E0B0E004C0880F991FAA1FBB1F2A9582
:1009F000D2F70197A109B1098E219F21A023B1232C
:100A00000097A105B10521F081E090E0A0E0B0E001
:100A10009A01AB01282B392B4A2B5B2BDA01C90138
:100A20008F779070A070B07080349105A105B105EA
:100A300039F427FF09C0205C3F4F4F4F5F4F04C080
:100A4000215C3F4F4F4F5F4FE0E0F0E02030A0E0EF
:100A50003A07A0E04A07A0E45A0710F0E1E0F0E00E
:100A600079018A0127C06038710564F5FB01E158FE
:100A7000FF4FD801C7018F779070A070B07080349D
:100A80009105A105B10539F4E7FE0DC080E490E0C1
:100A9000A0E0B0E004C08FE390E0A0E0B0E0E80E9A
:100AA000F91E0A1F1B1F17FF05C016950795F7941F
:100AB000E794319687E016950795F794E7948A9521
:100AC000D1F705C0EE24FF248701EFEFF0E06E2F91
:100AD000679566276795902F9F77D794DD24D794E5
:100AE0008E2F8695492F462B582F5D29B701CA01B5
:100AF0001F910F91FF90EF90DF900895FC01DB01B3
:100B0000408151812281622F6F7770E0221F22275E
:100B1000221F9381892F880F822B282F30E0991F65
:100B20009927991F11969C93119721153105A9F5C5
:100B3000411551056105710511F482E037C082E865
:100B40009FEF13969C938E9312979A01AB0167E0E7
:100B5000220F331F441F551F6A95D1F783E08C93F2
:100B60000DC0220F331F441F551F12968D919C916B
:100B70001397019713969C938E931297203080E0E1
:100B8000380780E0480780E4580758F314962D93FF
:100B90003D934D935C93179708952F3F310579F45A
:100BA000411551056105710519F484E08C93089590
:100BB00064FF03C081E08C9312C01C9210C02F57B9
:100BC000304013963C932E93129783E08C9387E0EA
:100BD000440F551F661F771F8A95D1F770641496CE
:100BE0004D935D936D937C93179708951F93DC014C
:100BF000FB019C91923008F447C08081823008F458
:100C000043C0943051F411961C91843099F5818140
:100C1000682F70E0611B71093FC0843021F0923071
:100C200031F48230B9F18181882389F12DC0119688
:100C30001C9111978230F1F081811817D9F4129626
:100C40002D913C911397828193818217930794F0A1
:100C500028173907BCF014968D919D910D90BC9189
:100C6000A02D2481358146815781281739074A07ED
:100C70005B0718F4112341F00AC082179307A407F9
:100C8000B50740F4112319F061E070E005C06FEF83
:100C90007FEF02C060E070E0CB011F910895DF9309
:100CA000CF9300D00F92CDB7DEB79B838A8381E0CC
:100CB00089838A819B81009719F481E0898377C0B9
:100CC0008A819B819093790080937800E0917800ED
:100CD000F09179008081883439F0E0917800F091CA
:100CE00079008081803471F4A3E5B0E0E3E5F0E0C1
:100CF0009081E0917800F09179008081892B8C932C
:100D0000198202C081E08983E0917800F091790036
:100D10008181883070F4A3E5B0E0E3E5F0E09081F4
:100D2000E0917800F09179008181892B8C93198270
:100D300002C081E08983E0917800F091790082819E
:100D4000813039F0E0917800F09179008281882338
:100D500071F4A9E5B0E0E9E5F0E09081E091780078
:100D6000F09179008281892B8C93198202C081E0F5
:100D70008983E0917800F09179008381803239F0A5
:100D8000E0917800F09179008381803371F4A3E5DC
:100D9000B0E0E3E5F0E09081E0917800F091790037
:100DA0008381892B8C93198202C081E08983898198
:100DB0000F900F900F90CF91DF910895DF93CF9315
:100DC0000F92CDB7DEB781E08983A3E5B0E0E3E51C
:100DD000F0E080818E7F8C93A3E5B0E0E3E5F0E066
:100DE00080818D7F8C93A3E5B0E0E3E5F0E0808126
:100DF0008B7F8C9389810F90CF91DF910895DF9342
:100E0000CF9300D00F92CDB7DEB79B838A8381E06A
:100E10008983ECE5F0E08081EA81FB818083898130
:100E20000F900F900F90CF91DF910895DF93CF93A4
:100E300000D0CDB7DEB78A8381E08983ECE5F0E0AE
:100E40008A81808389810F900F90CF91DF910895DF
:100E5000DF93CF9300D0CDB7DEB79A8389838981A2
:100E60009A8190937100809370000F900F90CF91B2
:100E7000DF910895DF93CF9300D00F92CDB7DEB707
:100E80009B838A831982EA81FB818081882F90E08D
:100E900082959295907F9827807F9827982F8981B7
:100EA000892B8983EA81FB818381882F90E0880FD9
:100EB000991F880F991F880F991F982F8981892B57
:100EC0008983EA81FB818481882F90E0880F991FB4
:100ED000880F991F982F8981892B8983EA81FB814B
:100EE0008581882F90E0880F991F82959295907F39
:100EF0009827807F9827982F8981892B8983EA8179
:100F0000FB8191818981892B8983AEE2B0E0EEE299
:100F1000F0E09081EA81FB818681892B8C93EA81C4
:100F2000FB818781882F90E09695982F8827979549
:100F30008795982F8981892B8983EA81FB8182811A
:100F4000882F90E00024969587950794969587952D
:100F50000794982F802D982F8981892B8983ADE262
:100F6000B0E0EDE2F0E090818981892B8C930F90C5
:100F70000F900F90CF91DF910895DF93CF930F9251
:100F8000CDB7DEB78983EFE2F0E089818083EEE2BE
:100F9000F0E080818823DCF7EFE2F0E080810F90C1
:100FA000CF91DF910895DF93CF930F92CDB7DEB746
:100FB0008983EFE2F0E089818083EEE2F0E08081D6
:100FC0008823DCF70F90CF91DF910895DF93CF93C3
:100FD0000F92CDB7DEB7EEE2F0E080818295869584
:100FE000869583708170898389810F90CF91DF917D
:100FF0000895DF93CF9300D0CDB7DEB79A8389836E
:1010000089819A8190937300809372000F900F9062
:10101000CF91DF9108951F920F920FB60F92112476
:101020002F933F934F935F936F937F938F939F93F0
:10103000AF93BF93EF93FF93DF93CF93CDB7DEB71B
:10104000E0917200F09173000995CF91DF91FF91CB
:10105000EF91BF91AF919F918F917F916F915F9130
:101060004F913F912F910F900FBE0F901F901895A9
:101070000F931F93DF93CF9300D0CDB7DEB79A8342
:10108000898389819A8190937B0080937A00E9819A
:10109000FA818081813029F0E981FA818081882379
:1010A000E9F400E210E0E981FA818181282F30E043
:1010B00040E050E080E492E4AFE0B0E0BC01CD015C
:1010C0000E946215DA01C9014097A109B109B695DC
:1010D000A79597958795F801808312C0E981FA81D9
:1010E0008081833029F0E981FA818081823041F466
:1010F000E2E2F0E0A981BA8112968C911297808386
:101100000F900F90CF91DF911F910F910895DF9372
:10111000CF930F92CDB7DEB78983E0917A00F0913B
:101120007B0080818823D9F5E6E5F0E084EA8083BE
:10113000E6E5F0E080818823DCF7E1E2F0E0808101
:101140008830D9F7A3E2B0E0E0917A00F0917B001B
:1011500082818C93E6E5F0E084E88083E6E5F0E0C8
:1011600080818823DCF7E1E2F0E080818831D9F7E3
:10117000E3E2F0E089818083E6E5F0E084E88083C3
:10118000E6E5F0E080818823DCF7E1E2F0E08081B1
:101190008832D9F7E6E5F0E084E9808327C0E09162
:1011A0007A00F0917B008081813001F5E6E5F0E086
:1011B00084EA8083E6E5F0E080818823DCF7E1E2E1
:1011C000F0E080818830D9F7A3E2B0E0E0917A00C6
:1011D000F0917B0082818F5F8C93E6E5F0E084E8FC
:1011E0008083E6E5F0E080818823DCF7E0917A00F7
:1011F000F0917B008081823069F4E3E2F0E0898144
:101200008083E6E5F0E084E88083E6E5F0E0808135
:101210008823DCF70F90CF91DF910895DF93CF9370
:101220000F92CDB7DEB71982E0917A00F0917B0082
:101230008081813091F4E6E5F0E084EC8083E6E59E
:10124000F0E080818823DCF7E3E2F0E080818983AD
:10125000E6E5F0E084E9808338C0E0917A00F0911F
:101260007B0080818330C1F4E6E5F0E084EC80838C
:10127000E6E5F0E080818823DCF7E1E2F0E08081C0
:101280008036D9F7E6E5F0E084EC8083E6E5F0E02F
:1012900080818823DCF719C0E0917A00F0917B000F
:1012A0008081823091F4E6E5F0E084EC8083E6E52D
:1012B000F0E080818823DCF7E1E2F0E08081883A89
:1012C000D9F7E3E2F0E08081898389810F90CF91A3
:1012D000DF910895DF93CF9300D00F92CDB7DEB7A3
:1012E0009B838A8381E089838A819B81009719F49B
:1012F00081E0898387C08A819B8190937E0080935F
:101300007D00EA81FB818081882329F0EA81FB81CD
:1013100080818830C1F4A3E5B0E0E3E5F0E08081AE
:10132000982FEA81FB818081809589238C93A3E5A6
:10133000B0E0E3E5F0E09081EA81FB818081892BD8
:101340008C93198202C081E08983EA81FB818181CB
:101350008830C0F4A3E5B0E0E3E5F0E08081982FA9
:10136000EA81FB818181809589238C93A3E5B0E09C
:10137000E3E5F0E09081EA81FB818181892B8C9308
:10138000198202C081E08983EA81FB8182818230F7
:1013900029F0EA81FB818281882399F4A9E5B0E0F4
:1013A000E9E5F0E080818D7F8C93A9E5B0E0E9E587
:1013B000F0E09081EA81FB818281892B8C931982F4
:1013C00002C081E08983EA81FB818381813029F039
:1013D000EA81FB818381882399F4A9E5B0E0E9E5FE
:1013E000F0E080818E7F8C93A9E5B0E0E9E5F0E044
:1013F0009081EA81FB818381892B8C93198202C0C1
:1014000081E0898389810F900F900F90CF91DF91B8
:101410000895DF93CF930F92CDB7DEB71982A3E57E
:10142000B0E0E3E5F0E080818E7F8C93A3E5B0E04F
:10143000E3E5F0E080818D7F8C93A3E5B0E0E3E508
:10144000F0E080818B7F8C9389810F90CF91DF9129
:101450000895DF93CF9300D00F92CDB7DEB79B8373
:101460008A8381E08983ECE5F0E08081EA81FB8179
:10147000808389810F900F900F90CF91DF91089515
:10148000DF93CF9300D0CDB7DEB78A831982ECE526
:10149000F0E08A81808389810F900F90CF91DF9156
:1014A0000895DF93CF9300D00F92CDB7DEB79B8323
:1014B0008A831982E2E5F0E08081EA81FB81808302
:1014C00089810F900F900F90CF91DF910895DF9356
:1014D000CF9300D0CDB7DEB78A831982E2E5F0E082
:1014E0008A81808389810F900F90CF91DF91089539
:1014F000DF93CF9300D00F92CDB7DEB79B838A8363
:10150000198280917C00EA81FB81808389810F9020
:101510000F900F90CF91DF910895DF93CF9300D07C
:10152000CDB7DEB78A8319828A8180937C00898156
:101530000F900F90CF91DF910895DF93CF9300D05C
:101540000F92CDB7DEB79B838A8319828A819B81F4
:10155000909375008093740089810F900F900F9085
:10156000CF91DF910895DF93CF9300D00F92CDB745
:10157000DEB79B838A8319828A819B81909377004F
:101580008093760089810F900F900F90CF91DF911B
:1015900008951F920F920FB60F9211242F933F932D
:1015A0004F935F936F937F938F939F93AF93BF936B
:1015B000EF93FF93DF93CF93CDB7DEB780917C009D
:1015C0008F5F80937C00E0917600F0917700099521
:1015D000CF91DF91FF91EF91BF91AF919F918F914B
:1015E0007F916F915F914F913F912F910F900FBE1F
:1015F0000F901F9018951F920F920FB60F92112403
:101600002F933F934F935F936F937F938F939F930A
:10161000AF93BF93EF93FF93DF93CF93CDB7DEB735
:1016200080917C008F5F80937C00E0917400F0914A
:1016300075000995CF91DF91FF91EF91BF91AF9127
:101640009F918F917F916F915F914F913F912F91DA
:101650000F900FBE0F901F901895DF93CF93CDB7CB
:10166000DEB7E9E2F0E083E38083ABE2B0E0EBE2F7
:10167000F0E080818D7F8C93AAE2B0E0EAE2F0E0B6
:10168000808188608C93AAE2B0E0EAE2F0E0808199
:1016900080618C93CF91DF910895DF93CF930F9268
:1016A000CDB7DEB78983EBE2F0E080818295869545
:1016B0008770882F90E0817090700097A1F3ECE222
:1016C000F0E0898180830F90CF91DF910895DF93BF
:1016D000CF930F92CDB7DEB7EBE2F0E080818823A5
:1016E000DCF7ECE2F0E08081898389810F90CF9173
:1016F000DF910895DF93CF9300D0CDB7DEB79A8303
:1017000089830AC0E981FA8180810E944D0B898119
:101710009A8101969A838983E981FA81808188235D
:1017200089F78DE00E944D0B0F900F90CF91DF91C4
:101730000895DF93CF93CDB7DEB72A970FB6F8940D
:10174000DEBF0FBECDBF2B833C834D835E836F8393
:10175000788789879A87CE0103969A838983E9815E
:10176000FA81208131814281538164817581868132
:101770009781822F0E944D0B89819A81FC013896B6
:101780002081318142815381648175818681978175
:10179000822F0E944D0B89819A81FC0170962081D5
:1017A0003181428153816481758186819781822F45
:1017B0000E944D0B89819A81FC01789620813181AC
:1017C000428153816481758186819781822F0E9435
:1017D0004D0B2A960FB6F894DEBF0FBECDBFCF914A
:1017E000DF910895AF92BF92CF92DF92EF92FF9276
:1017F0000F931F93DF93CF93CDB7DEB72A970FB622
:10180000F894DEBF0FBECDBFCE0103969A838983C5
:101810000E94670B282F30E040E050E060E070E06D
:1018200080E090E0E981FA81208331834283538311
:10183000648375838683978389819A818C01085F8D
:101840001F4F0E94670B282F30E040E050E060E01F
:1018500070E080E090E0F8012083F8013183F80126
:101860004283F8015383F8016483F8017583F8011A
:101870008683F801978389819A818C01005F1F4FCD
:101880000E94670B282F30E040E050E060E070E0FD
:1018900080E090E0F8012083F8013183F801428371
:1018A000F8015383F8016483F8017583F801868396
:1018B000F801978389819A818C01085E1F4F0E94ED
:1018C000670B282F30E040E050E060E070E080E0FF
:1018D00090E0F8012083F8013183F8014283F80198
:1018E0005383F8016483F8017583F8018683F80156
:1018F00097832B813C814D815E816F8178858985BD
:101900009A85A22EB32EC42ED52EE62EF72E082FA2
:10191000192F2A2D3B2D4C2D5D2D6E2D7F2D802FC7
:10192000912F2A960FB6F894DEBF0FBECDBFCF9190
:10193000DF911F910F91FF90EF90DF90CF90BF90BC
:10194000AF900895DF93CF9300D000D00F92CDB722
:10195000DEB79C838B836D831A820E94670B898319
:1019600010C08A81282F30E08B819C81FC01E20F1E
:10197000F31F898180830E94670B89838A818F5F2F
:101980008A839A818D81981718F489818D3049F75F
:101990008A81282F30E08B819C81FC01E20FF31FAC
:1019A00010820F900F900F900F900F90CF91DF91BA
:1019B0000895DF93CF9300D00F92CDB7DEB79A830F
:1019C0008983EBE2F0E0808188234CF4ECE2F0E0E4
:1019D0008081E981FA81808381E08B8301C01B8251
:1019E0008B810F900F900F90CF91DF910895DF932F
:1019F000CF93CDB7DEB7ABE2B0E0EBE2F0E08081B1
:101A000080688C93CF91DF910895DF93CF93CDB70A
:101A1000DEB7ABE2B0E0EBE2F0E080818F778C9351
:101A2000CF91DF910895DF93CF93CDB7DEB7ABE2CF
:101A3000B0E0EBE2F0E0808180648C93CF91DF91A5
:101A40000895DF93CF93CDB7DEB7ABE2B0E0EBE222
:101A5000F0E080818F7B8C93CF91DF910895DF93AD
:101A6000CF930F92CDB7DEB78983ECE2F0E08981A6
:101A700080830F90CF91DF910895DF93CF93CDB7FF
:101A8000DEB7ECE2F0E08081CF91DF9108951F9204
:101A90000F920FB60F9211242F933F934F935F93A2
:101AA0006F937F938F939F93AF93BF93EF93FF9326
:101AB000DF93CF93CDB7DEB7E0917F00F091800048
:101AC0000995CF91DF91FF91EF91BF91AF919F91D8
:101AD0008F917F916F915F914F913F912F910F90D7
:101AE0000FBE0F901F9018951F920F920FB60F9276
:101AF00011242F933F934F935F936F937F938F9313
:101B00009F93AF93BF93EF93FF93DF93CF93CDB7A3
:101B1000DEB7E0917F00F09180000995CF91DF91D1
:101B2000FF91EF91BF91AF919F918F917F916F91B5
:101B30005F914F913F912F910F900FBE0F901F908B
:101B40001895DF93CF93CDB7DEB7A1E4B0E0E1E421
:101B5000F0E080818E608C93CF91DF910895DF93C8
:101B6000CF93CDB7DEB7A1E4B0E0E1E4F0E080814F
:101B700088618C93E1E4F0E01082CF91DF910895C9
:101B8000DF93CF93CDB7DEB728970FB6F894DEBFBB
:101B90000FBECDBF1A821F821C821D8281E08B8303
:101BA00018861E8281E08983A7E3B0E0E7E3F0E0D6
:101BB0008081806B8C93A7E3B0E0E7E3F0E0808165
:101BC0008F7B8C93CE0101960E943A0728960FB620
:101BD000F894DEBF0FBECDBFCF91DF910895DF93A4
:101BE000CF9300D0CDB7DEB789836A83A8E3B0E096
:101BF000E8E3F0E080818F7E8C9389810E94D30797
:101C00008A810E94D307A8E3B0E0E8E3F0E0808196
:101C100080618C930F900F90CF91DF910895DF93A7
:101C2000CF93CDB7DEB7A1E3B0E0E1E3F0E0808190
:101C3000807F8C93A1E3B0E0E1E3F0E08081806FEE
:101C40008C93E2E3F0E08FEF8083CF91DF910895F2
:101C5000DF93CF93CDB7DEB727970FB6F894DEBFEB
:101C60000FBECDBF1C821B8206C1A2E3B0E0E2E33F
:101C7000F0E08081806F8C93A2E3B0E0E2E3F0E0DB
:101C80008081482F8B819C81FC01E459FF4F80812A
:101C9000282F30E081E090E0022E02C0880F991FCB
:101CA0000A94E2F7809584238C931A821982D8C013
:101CB000E0E3F0E08081282F30E089819A81FC0107
:101CC000E859FF4F8081882F90E0A90102C0559507
:101CD00047958A95E2F7CA0181709070009709F0E4
:101CE000BAC0E0E3F0E08081282F30E089819A815A
:101CF000FC01E859FF4F8081882F90E0A90102C0C4
:101D0000559547958A95E2F7CA01817090700097C2
:101D100041F38B819C819F838E834E815F81413013
:101D20005105C1F18E819F818230910534F44E813D
:101D30005F814115510571F08BC08E819F8182308A
:101D4000910509F447C04E815F814330510509F484
:101D500060C07EC089819A81009719F457E35D8342
:101D600092C089819A818130910519F484E38D8331
:101D70008AC089819A818230910519F491E39D830B
:101D800082C089819A818330910509F064C040E462
:101D90004D8379C089819A81009719F458E35D8356
:101DA00072C089819A818130910519F485E38D8310
:101DB0006AC089819A818230910519F492E39D83EA
:101DC00062C089819A818330910509F044C040E363
:101DD0004D8359C089819A81009719F459E35D8335
:101DE00052C089819A818130910519F486E38D83EF
:101DF0004AC089819A818230910519F493E39D83C9
:101E000042C089819A818330910529F54DE34D8344
:101E10003AC089819A81009719F45FE25D8333C0EB
:101E200089819A818130910519F48AE28D832BC0D2
:101E300089819A818230910519F49DE29D8323C0A6
:101E400089819A818330910531F44BE24D831BC027
:101E500051E45D8318C089819A8101969A838983B0
:101E600089819A81843091050CF422CF8B819C81E9
:101E700001969C838B838B819C81843091050CF42B
:101E8000F4CE81E48D838D8127960FB6F894DEBF62
:101E90000FBECDBFCF91DF910895DF93CF93CDB724
:101EA000DEB781E00E940912CF91DF910895DF93A0
:101EB000CF93CDB7DEB72E970FB6F894DEBF0FBE27
:101EC000CDBFA8E3B0E0E8E3F0E0808188608C93C8
:101ED00080E090E0A8E4B2E48B879C87AD87BE8762
:101EE0006B857C858D859E8520E030E04AEF54E44B
:101EF0000E941F02DC01CB018F839887A987BA87D4
:101F00006F81788589859A8520E030E040E85FE33D
:101F10000E94250488232CF481E090E09E838D8329
:101F20003FC06F81788589859A8520E03FEF4FE734
:101F300057E40E94C50318164CF56B857C858D858A
:101F40009E8520E030E040E251E40E941F02DC0167
:101F5000CB01BC01CD010E944900DC01CB019E8375
:101F60008D830FC088EC90E09C838B838B819C8158
:101F70000197F1F79C838B838D819E8101979E83CE
:101F80008D838D819E81009769F714C06F8178855C
:101F900089859A850E944900DC01CB019E838D834F
:101FA0008D819E819A83898389819A810197F1F736
:101FB0009A838983A8E3B0E0E8E3F0E08081877F3B
:101FC0008C932E960FB6F894DEBF0FBECDBFCF9187
:101FD000DF910895DF93CF9300D0CDB7DEB789832B
:101FE0006A838981813039F48A81803120F48A8141
:101FF00080580E9409128981823039F48A818031A7
:1020000020F48A8180540E9409120F900F90CF9182
:10201000DF910895DF93CF93CDB7DEB7E4970FB686
:10202000F894DEBF0FBECDBF80E090E0A0EAB1E43F
:1020300089AB9AABABABBCAB69A97AA98BA99CA9BC
:1020400020E030E04AEF54E40E941F02DC01CB01A3
:102050008DA79EA7AFA7B8AB6DA57EA58FA598A9A4
:1020600020E030E040E85FE30E94250488232CF460
:1020700081E090E09CA78BA73FC06DA57EA58FA5B2
:1020800098A920E03FEF4FE757E40E94C5031816D8
:102090004CF569A97AA98BA99CA920E030E040E21F
:1020A00051E40E941F02DC01CB01BC01CD010E9462
:1020B0004900DC01CB019CA78BA70FC088EC90E006
:1020C0009AA789A789A59AA50197F1F79AA789A741
:1020D0008BA59CA501979CA78BA78BA59CA500977A
:1020E00069F714C06DA57EA58FA598A90E94490027
:1020F000DC01CB019CA78BA78BA59CA598A78FA3E0
:102100008FA198A50197F1F798A78FA3A7E3B0E057
:10211000E7E3F0E080818E608C93A8E3B0E0E8E331
:10212000F0E08081817F8C9380E090E0A0E7B1E4D3
:102130008BA39CA3ADA3BEA36BA17CA18DA19EA1EB
:1021400020E030E04AEF54E40E941F02DC01CB01A2
:102150008F8F98A3A9A3BAA36F8D78A189A19AA103
:1021600020E030E040E85FE30E94250488232CF45F
:1021700081E090E09E8F8D8F3FC06F8D78A189A107
:102180009AA120E03FEF4FE757E40E94C5031816DD
:102190004CF56BA17CA18DA19EA120E030E040E236
:1021A00051E40E941F02DC01CB01BC01CD010E9461
:1021B0004900DC01CB019E8F8D8F0FC088EC90E031
:1021C0009C8F8B8F8B8D9C8D0197F1F79C8F8B8FC4
:1021D0008D8D9E8D01979E8F8D8F8D8D9E8D0097FD
:1021E00069F714C06F8D78A189A19AA10E94490056
:1021F000DC01CB019E8F8D8F8D8D9E8D9A8F898F67
:10220000898D9A8D0197F1F79A8F898F0E944D0FD2
:1022100080E090E0A8ECB2E48D8B9E8BAF8BB88F02
:102220006D897E898F89988D2BEA3AEA4AE250E4DB
:102230000E941F02DC01CB01898B9A8BAB8BBC8B7C
:1022400069897A898B899C8920E030E040E85FE3E6
:102250000E94250488231CF481E0888B91C0698941
:102260007A898B899C8920E030E04FE753E40E9413
:10227000C50318160CF07BC06D897E898F89988DF7
:1022800020E030E04AE754E40E941903DC01CB016E
:102290008C879D87AE87BF876C857D858E859F8562
:1022A00020E030E04AEF54E40E941F02DC01CB0141
:1022B00088879987AA87BB87688579858A859B8562
:1022C00020E030E040E85FE30E94250488232CF4FE
:1022D00081E090E09F838E833FC0688579858A8501
:1022E0009B8520E03FEF4FE757E40E94C503181697
:1022F0004CF56C857D858E859F8520E030E040E241
:1023000051E40E941F02DC01CB01BC01CD010E94FF
:102310004900DC01CB019F838E830FC088EC90E0E5
:102320009D838C838C819D810197F1F79D838C83A4
:102330008E819F8101979F838E838E819F810097DD
:1023400069F724C0688579858A859B850E94490044
:10235000DC01CB019F838E838E819F819B838A8347
:102360008A819B810197F1F79B838A830FC06989DA
:102370007A898B899C890E944900DC01CB01888B7A
:102380008889898389818A95F1F7898388E30E9406
:10239000091286E00E94091280E80E9409128FE06B
:1023A0000E940912E4960FB6F894DEBF0FBECDBFAF
:1023B000CF91DF910895DF93CF9300D0CDB7DEB7F3
:1023C000EAE3F0E08081EAE3F0E01082A8E3B0E025
:1023D000E8E3F0E0808184608C93A8E3B0E0E8E378
:1023E000F0E080818D7F8C930E94570FEAE3F0E04C
:1023F0008081EAE3F0E08FEF8083A8E3B0E0E8E3D8
:10240000F0E080818B7F8C930F900F90CF91DF91C4
:102410000895DF93CF93CDB7DEB72F970FB6F8941B
:10242000DEBF0FBECDBF8F870E94DB11EBE3F0E074
:102430008F858083A8E3B0E0E8E3F0E08081897FC6
:102440008C9380E090E0A0E8BFE38B879C87AD870A
:10245000BE876B857C858D859E8520E030E04AEFC8
:1024600054E40E941F02DC01CB018F839887A98767
:10247000BA876F81788589859A8520E030E040E8C9
:102480005FE30E94250488232CF481E090E09E8382
:102490008D833FC06F81788589859A8520E03FEFE5
:1024A0004FE757E40E94C50318164CF56B857C85F1
:1024B0008D859E8520E030E040E251E40E941F02BD
:1024C000DC01CB01BC01CD010E944900DC01CB0144
:1024D0009E838D830FC088EC90E09C838B838B81DF
:1024E0009C810197F1F79C838B838D819E8101975D
:1024F0009E838D838D819E81009769F714C06F81C3
:10250000788589859A850E944900DC01CB019E83EC
:102510008D838D819E819A83898389819A81019798
:10252000F1F79A8389830E94570F2F960FB6F8947C
:10253000DEBF0FBECDBFCF91DF910895DF93CF9364
:10254000CDB7DEB72F970FB6F894DEBF0FBECDBF65
:102550008F870E94DB11EBE3F0E08F858083A8E397
:10256000B0E0E8E3F0E080818B7F8C93A8E3B0E0FB
:10257000E8E3F0E0808182608C9380E090E0A0E866
:10258000BFE38B879C87AD87BE876B857C858D85F8
:102590009E8520E030E04AEF54E40E941F02DC01F7
:1025A000CB018F839887A987BA876F8178858985C2
:1025B0009A8520E030E040E85FE30E94250488230C
:1025C0002CF481E090E09E838D833FC06F817885FD
:1025D00089859A8520E03FEF4FE757E40E94C503C5
:1025E00018164CF56B857C858D859E8520E030E046
:1025F00040E251E40E941F02DC01CB01BC01CD018D
:102600000E944900DC01CB019E838D830FC088ECC2
:1026100090E09C838B838B819C810197F1F79C8355
:102620008B838D819E8101979E838D838D819E8179
:10263000009769F714C06F81788589859A850E9413
:102640004900DC01CB019E838D838D819E819A831D
:10265000898389819A810197F1F79A8389830E94FE
:10266000570F2F960FB6F894DEBF0FBECDBFCF9198
:10267000DF910895DF93CF9300D000D0CDB7DEB7C0
:102680009C838B831A82198227C089819A81019643
:102690009A838983EB81FC8120818B819C810196C7
:1026A0009C838B83822F0E949E1289819A81803124
:1026B000910529F482E060E00E94EA0F0DC0898153
:1026C0009A818032910541F40E944D0F81E060E0D3
:1026D0000E94EA0F1A821982EB81FC818081882393
:1026E000A1F60F900F900F900F90CF91DF9108956A
:1026F000DF93CF93CDB7DEB7AA970FB6F894DEBFBE
:102700000FBECDBF80E40E94091280E00E949E129D
:102710008EE00E949E1281E10E949E1282E00E9441
:102720009E1284E00E949E1284E00E949E1280E02D
:102730000E949E1284E00E949E1280E80E9409126C
:1027400080E00E949E1280E090E0A0E2B1E48FA3BE
:1027500098A7A9A7BAA76FA178A589A59AA520E0EF
:1027600030E04AEF54E40E941F02DC01CB018BA34E
:102770009CA3ADA3BEA36BA17CA18DA19EA120E0D3
:1027800030E040E85FE30E94250488232CF481E0D8
:1027900090E09AA389A33FC06BA17CA18DA19EA1CB
:1027A00020E03FEF4FE757E40E94C50318164CF5B1
:1027B0006FA178A589A59AA520E030E040E251E418
:1027C0000E941F02DC01CB01BC01CD010E94490027
:1027D000DC01CB019AA389A30FC088EC90E098A3F9
:1027E0008F8F8F8D98A10197F1F798A38F8F89A173
:1027F0009AA101979AA389A389A19AA1009769F741
:1028000014C06BA17CA18DA19EA10E944900DC0196
:10281000CB019AA389A389A19AA19E8F8D8F8D8DBB
:102820009E8D0197F1F79E8F8D8F88E40E9409128B
:1028300080E00E949E128AE00E949E1285E10E9422
:102840009E1281E10E949E1282E10E949E1284E00B
:102850000E949E1280E00E949E1280E00E949E12C2
:1028600081E063E00E94EA0F81E00E949E1280E016
:1028700090E0A0E2B1E4898F9A8FAB8FBC8F698D15
:102880007A8D8B8D9C8D20E030E04AEF54E40E94DD
:102890001F02DC01CB018D8B9E8BAF8BB88F6D89B6
:1028A0007E898F89988D20E030E040E85FE30E94C8
:1028B000250488232CF481E090E09C8B8B8B3FC017
:1028C0006D897E898F89988D20E03FEF4FE757E42F
:1028D0000E94C50318164CF5698D7A8D8B8D9C8DE1
:1028E00020E030E040E251E40E941F02DC01CB0115
:1028F000BC01CD010E944900DC01CB019C8B8B8B7C
:102900000FC088EC90E09A8B898B89899A8901970E
:10291000F1F79A8B898B8B899C8901979C8B8B8B88
:102920008B899C89009769F714C06D897E898F898E
:10293000988D0E944900DC01CB019C8B8B8B8B898D
:102940009C89988B8F878F8598890197F1F7988B51
:102950008F8780E50E94091280E00E949E1284E128
:102960000E949E128BE00E949E128BE10E949E129A
:102970008CE10E949E1288E20E949E1280E00E94DA
:102980009E1280E00E949E1281E065E00E94EA0FA4
:1029900082E00E949E1280E090E0A0E2B1E48B878A
:1029A0009C87AD87BE876B857C858D859E8520E065
:1029B00030E04AEF54E40E941F02DC01CB018F8318
:1029C0009887A987BA876F81788589859A8520E05D
:1029D00030E040E85FE30E94250488232CF481E086
:1029E00090E09E838D833FC06F81788589859A852D
:1029F00020E03FEF4FE757E40E94C50318164CF55F
:102A00006B857C858D859E8520E030E040E251E439
:102A10000E941F02DC01CB01BC01CD010E944900D4
:102A2000DC01CB019E838D830FC088EC90E09C83FA
:102A30008B838B819C810197F1F79C838B838D81A4
:102A40009E8101979E838D838D819E81009769F77A
:102A500014C06F81788589859A850E944900DC01C0
:102A6000CB019E838D838D819E819A838983898109
:102A70009A810197F1F79A838983AA960FB6F89401
:102A8000DEBF0FBECDBFCF91DF910895DF93CF930F
:102A900000D000D0CDB7DEB7A7E3B0E0E7E3F0E0C9
:102AA000808188608C9388E4898383E08A831B8299
:102AB00080E28C8380E80E941607CE0101960E9476
:102AC0004F06FFCFA1E21A2EAA1BBB1BFD010DC0B2
:102AD000AA1FBB1FEE1FFF1FA217B307E407F507CE
:102AE00020F0A21BB30BE40BF50B661F771F881FAA
:102AF000991F1A9469F760957095809590959B0140
:102B0000AC01BD01CF0108952F923F924F925F9289
:102B10006F927F928F929F92AF92BF92CF92DF92ED
:102B2000EF92FF920F931F93CF93DF93CDB7DEB752
:102B3000CA1BDB0B0FB6F894DEBF0FBECDBF0994E6
:102B40002A88398848885F846E847D848C849B843D
:102B5000AA84B984C884DF80EE80FD800C811B814B
:102B6000AA81B981CE0FD11D0FB6F894DEBF0FBE7A
:0A2B7000CDBFED010895F894FFCFEA
:102B7A00000000000000000000010203040506072F
:00000001FF
