:020000040800F2
:1000000000280020610F0008B10F0008B10F0008A0
:10001000B10F0008B10F0008B10F00080000000088
:10002000000000000000000000000000B10F000808
:10003000B10F000800000000B10F0008B10F000868
:10004000B10F0008B10F0008B10F0008B10F000890
:10005000B10F0008B10F0008A1090008C509000888
:10006000E90900080D0A0008310A0008B10F00086C
:10007000B10F0008B10F0008B10F0008B10F000860
:10008000B10F0008B10F0008B10F0008B10F000850
:10009000B10F0008B10F0008B10F0008550A0008A1
:1000A000B10F0008B10F0008B10F0008B10F000830
:1000B000B10F0008B10F0008B10F0008B10F000820
:1000C000B10F0008B10F0008B10F0008B10F000810
:1000D000B10F0008B10F0008B10F0008B10F000800
:1000E000FD0A0008B10F000800000000B10F000871
:1000F000B10F0008B10F0008B10F0008B10F0008E0
:10010000B10F0008B10F0008B10F0008B10F0008CF
:10011000B10F0008B10F0008B10F0008B10F0008BF
:10012000B10F0008B10F0008B10F0008B10F0008AF
:1001300010B5054C237833B9044B13B10448AFF321
:1001400000800123237010BD00000020000000008B
:10015000FC0F000808B5034B1BB103490348AFF37C
:10016000008008BD0000000004000020FC0F000813
:1001700080B485B000AF78600023FB600BE0002303
:10018000BB6002E0BB680133BB60BB68FE2BF9D9E2
:10019000FB680133FB60FA687B689A42EFD300BFCB
:1001A00000BF1437BD4680BC704780B500AF01204A
:1001B00000F0BCF900BF80BD80B500AF01224FF454
:1001C0008061074800F043FE3220FFF7D1FF002294
:1001D0004FF48061024800F03AFE00BF80BD00BFCE
:1001E0000008014080B582B000AF03460A46FB71AB
:1001F0001346BB71FB79012B08D1BB790F2B05D8B6
:10020000BB79803BDBB2184600F090F9FB79022BFA
:1002100008D1BB790F2B05D8BB79403BDBB2184620
:1002200000F084F900BF0837BD4680BD80B500AF3F
:100230001420FFF79DFF5D4B4FF480621A805B4BEB
:1002400004229A70594B0122DA705849584800F03C
:100250006FFD564B4FF480721A80544B04229A70F3
:10026000524B0122DA705149514800F061FD4F4B69
:100270004FF400721A804D4B04229A704B4B0122AE
:10028000DA704A494A4800F053FD00224FF4806179
:10029000474800F0DCFD00224FF48071444800F034
:1002A000D6FD00224FF40071414800F0D0FD3F4BD5
:1002B00001221A803D4B04229A703C4B0122DA70D5
:1002C0003A493B4800F034FD384B02221A80374B44
:1002D00004229A70354B0122DA703449344800F018
:1002E00027FD324B04221A80304B04229A702F4B88
:1002F0000122DA702D492E4800F01AFD2B4B0822FE
:100300001A802A4B04229A70284B0122DA7027495E
:10031000274800F00DFD254B10221A80234B0422A4
:100320009A70224B0122DA702049214800F000FD2A
:100330001E4B20221A801D4B04229A701B4B012257
:10034000DA701A491A4800F0F3FC184B40221A8060
:10035000164B04229A70154B0122DA701349144887
:1003600000F0E6FC114B80221A80104B04229A7098
:100370000E4B0122DA700D490D4800F0D9FC0F2018
:10038000FFF7F6FEFFF711FF0120FFF7F1FE38201F
:1003900000F0CCF8062000F0C9F8802000F0C6F884
:1003A0000F2000F0C3F800BF80BD00BF1C0000207C
:1003B0000008014080B500AF5A4B01221A80594B0A
:1003C00001229A705749584800F0B2FC554B02225E
:1003D0001A80544B01229A705249534800F0A8FCED
:1003E000504B04221A804F4B01229A704D494E48BF
:1003F00000F09EFC4B4B08221A804A4B01229A7057
:100400004849494800F094FC464B10221A80454B5D
:1004100001229A704349444800F08AFC414B202253
:100420001A80404B01229A703E493F4800F080FC00
:100430003C4B40221A803B4B01229A7039493A4882
:1004400000F076FC374B80221A80364B01229A70DE
:100450003449354800F06CFC01224FF400713248F9
:1004600000F0F5FC00224FF400712F4800F0EFFC83
:10047000FFF7A2FE2B4B01221A802A4B04229A700E
:100480002849294800F054FC264B02221A80254BAB
:1004900004229A702349244800F04AFC214B04228C
:1004A0001A80204B04229A701E491F4800F040FC1D
:1004B0001C4B08221A801B4B04229A7019491A48B7
:1004C00000F036FC174B10221A80164B04229A704B
:1004D0001449154800F02CFC124B20221A80114BB5
:1004E00004229A700F49104800F022FC0D4B402264
:1004F0001A800C4B04229A700A490B4800F018FC31
:10050000084B80221A80074B04229A70054906483E
:1005100000F00EFC00224FF40071034800F097FC3D
:1005200000BF80BD1C0000200008014080B582B0E3
:1005300000AF0346FB71FFF73DFFFB799BB2194605
:100540000B4800F076FC00224FF40071084800F0E0
:100550007EFC00224FF48071054800F078FC0120F9
:10056000FFF706FEFFF728FE00BF0837BD4680BD37
:100570000008014080B582B000AF0346FB71FB79F3
:100580009BB219460B4800F054FC00224FF4007156
:10059000084800F05CFC01224FF48071054800F02F
:1005A00056FC0120FFF7E4FDFFF706FE00BF083709
:1005B000BD4680BD0008014080B584B000AF7860C2
:1005C0000023FB601CE0FB680133FB607B685A1C66
:1005D0007A601B781846FFF7CDFFFB68102B04D11B
:1005E00000210220FFF7FEFD0AE0FB68202B07D167
:1005F000FFF7DBFD00210120FFF7F4FD0023FB6086
:100600007B681B78002BDED100BF00BF1037BD46D2
:1006100080BD000080B483B000AF0346FB71FB795E
:100620000F2B54D801A252F823F000BF6D0600082A
:100630007B0600088906000897060008A506000842
:10064000B3060008B3060008B3060008B3060008A6
:10065000B3060008C1060008C1060008C10600086C
:10066000C1060008C1060008C10600081B4B1B6834
:100670001A4A43F0010313602AE0184B1B68174A1B
:1006800043F08003136023E0144B1B68134A43F4C8
:10069000807313601CE0114B1B68104A43F4007315
:1006A000136015E00D4B1B680C4A43F48063136024
:1006B0000EE00A4B1B68094A43F40003136007E08D
:1006C000074B1B68064A43F48073136000E000BFC9
:1006D00000BF0C37BD4680BC704700BF00E100E0A2
:1006E00004E100E080B483B000AF0346FB71FB7906
:1006F0000F2B54D801A252F823F000BF3D07000889
:100700004B0700085907000867070008750700082D
:100710008307000883070008830700088307000891
:100720008307000891070008910700089107000857
:100730009107000891070008910700081B4B1B68F0
:100740001A4A43F0010313602AE0184B1B68174A4A
:1007500043F08003136023E0144B1B68134A43F4F7
:10076000807313601CE0114B1B68104A43F4007344
:10077000136015E00D4B1B680C4A43F48063136053
:100780000EE00A4B1B68094A43F40003136007E0BC
:10079000074B1B68064A43F48073136000E000BFF8
:1007A00000BF0C37BD4680BC704700BF80E100E051
:1007B00084E100E080B584B000AF78607B681B897D
:1007C0003B810123BB727B685B6807F1080211461D
:1007D000184600F0ADFA7B681B789B08FB737B68BA
:1007E0001B7803F00303DBB29B00BB735F4AFB7B08
:1007F000023352F82320BB7B0F2101FA03F3DB43C2
:1008000018465A49FB7B0240023341F82320574ADD
:10081000FB7B023352F823107B685B68544A934297
:1008200016D07B685B68534A93420FD07B685B6845
:10083000514A934208D07B685B68504A934201D189
:10084000032306E0002304E0022302E0012300E08A
:100850000023BA7B03FA02F24448FB7B0A430233CB
:1008600040F82320464B9B687A6812781146012293
:100870008A40D2431146424A0B409360404BDB68AA
:100880007A681278114601228A40D24311463C4AC6
:100890000B40D3607B681B7B002B0BD1384B9B68D4
:1008A0007A681278114601228A401146344A0B4375
:1008B000936029E07B681B7B012B0BD1304BDB68FD
:1008C0007A681278114601228A4011462C4A0B435D
:1008D000D36019E07B681B7B022B15D1284B9B68EA
:1008E0007A681278114601228A401146244A0B4345
:1008F0009360234BDB687A681278114601228A40A4
:1009000011461F4A0B43D3607B681B7819467B68EE
:100910001B691C4A42F821307B685B7B002B10D19D
:10092000174B1B687A681278114601228A401146DB
:10093000134A0B4313607B681B781846FFF76AFE67
:1009400010E00F4B1B687A681278114601228A402A
:10095000D24311460A4A0B4013607B681B78184645
:10096000FFF7C0FE00BF1037BD4680BD000001404C
:1009700000080140000C014000100140001401403B
:10098000000401402000002080B582B000AF7860F4
:100990007868FFF70FFF00BF0837BD4680BD000035
:1009A00080B500AF054B5B69044A43F00103536116
:1009B000034B1B68984700BF80BD00BF0004014087
:1009C0002000002080B500AF054B5B69044A43F06E
:1009D00002035361034B5B68984700BF80BD00BFB3
:1009E000000401402000002080B500AF054B5B698A
:1009F000044A43F004035361034B9B68984700BFCC
:100A000080BD00BF000401402000002080B500AF81
:100A1000054B5B69044A43F008035361034BDB68F1
:100A2000984700BF80BD00BF0004014020000020A7
:100A300080B500AF054B5B69044A43F01003536176
:100A4000034B1B69984700BF80BD00BF00040140F5
:100A50002000002080B500AF264B5B6903F0200327
:100A6000002B08D0234B5B69224A43F020035361DB
:100A7000214B5B6998471F4B5B6903F04003002BD8
:100A800008D01C4B5B691B4A43F0400353611A4B6F
:100A90009B699847174B5B6903F08003002B08D0D4
:100AA000144B5B69134A43F080035361124BDB69BB
:100AB0009847104B5B6903F48073002B08D00E4BF2
:100AC0001B6A98470B4B5B690A4A43F48073536176
:100AD000084B5B6903F40073002B08D0054B5B697E
:100AE000044A43F400735361034B5B6A984700BFA9
:100AF00080BD00BF000401402000002080B500AF91
:100B00002D4B5B6903F48063002B08D02A4B5B6993
:100B1000294A43F480635361284B9B6A9847264BCC
:100B20005B6903F40063002B08D0234B5B69224A06
:100B300043F400635361214BDB6A98471E4B5B69AA
:100B400003F48053002B08D01B4B5B691A4A43F413
:100B500080535361194B1B6B9847174B5B6903F428
:100B60000053002B08D0144B5B69134A43F4005325
:100B70005361124B5B6B98470F4B5B6903F48043E7
:100B8000002B08D00C4B5B690B4A43F48043536144
:100B90000A4B9B6B9847084B5B6903F40043002B9F
:100BA00008D0054B5B69044A43F400435361034B8F
:100BB000DB6B984700BF80BD00040140200000208F
:100BC00080B483B000AF0346FB80FB88B3F5004FD1
:100BD00000F0A580B3F5004F00F3A380B3F5804F7C
:100BE00000F09B80B3F5804F00F39B80B3F5005F6E
:100BF00000F09180B3F5005F00F39380B3F5805F60
:100C000000F08780B3F5805F00F38B80B3F5006F51
:100C10007DD0B3F5006F00F38480B3F5806F74D09E
:100C2000B3F5806F7DDCB3F5007F6CD0B3F5007F4A
:100C300077DCB3F5807F64D0B3F5807F71DC802BE7
:100C40005DD0802B6DDC202B48DC002B69DD013B67
:100C50001F2B66D801A252F823F000BFE30C000856
:100C6000E70C0008230D0008EB0C0008230D00081A
:100C7000230D0008230D0008EF0C0008230D0008C9
:100C8000230D0008230D0008230D0008230D000884
:100C9000230D0008230D0008F30C0008230D0008A5
:100CA000230D0008230D0008230D0008230D000864
:100CB000230D0008230D0008230D0008230D000854
:100CC000230D0008230D0008230D0008230D000844
:100CD000230D0008230D0008F70C0008402B0CD052
:100CE0001FE000231EE004231CE008231AE00C236D
:100CF00018E0102316E0142314E0182312E01C233C
:100D000010E000230EE004230CE008230AE00C238B
:100D100008E0102306E0142304E0182302E01C235B
:100D200000E0002318460C37BD4680BC704700BF6A
:100D300090B585B000AF786039600023BB603B6838
:100D40001B88FF2B01D87B6801E07B680433BB6004
:100D50003B681B881846FFF733FF03461A460F23EC
:100D60009340DA43BB681B681A40BB681A600023D3
:100D7000FB733B689B78072B0BD03B689B78062B5B
:100D800007D03B689B78052B03D03B689B78042BEE
:100D90000ED13B689B78043B9B005AB23B68DB78E2
:100DA0005BB213435BB2DBB203F00F03FB732EE0C5
:100DB0003B689B78022B0ED17B68DB683A6812880F
:100DC0001A437B68DA603B689B789B00DBB203F0D8
:100DD0000F03FB731BE03B689B78032B10D17B68F0
:100DE000DB683A681288D2431A407B68DA603B6855
:100DF0009B78013B9B00DBB203F00F03FB7306E023
:100E00003B689B789B00DBB203F00F03FB73FC7B1A
:100E10003B681B881846FFF7D3FE034604FA03F22B
:100E2000BB681B681A43BB681A6000BF1437BD4615
:100E300090BD80B483B000AF78600B467B807A8829
:100E40007B68DA6000BF0C37BD4680BC704780B459
:100E500083B000AF78600B467B8013467B707B7855
:100E6000012B03D17A887B681A6102E07A887B685B
:100E70005A6100BF0C37BD4680BC704780B485B056
:100E800000AF78600023FB600BE00023BB6002E052
:100E9000BB680133BB60BB68FE2BF9D9FB6801332B
:100EA000FB60FA687B689A42EFD300BF00BF14373B
:100EB000BD4680BC7047000080B500AF0548FFF715
:100EC0007BFB4FF42F70FFF7D9FFFFF76EF900BFE0
:100ED00080BD00BF1410000880B588B000AF0A4A7A
:100EE00007F10C0307CA83E8070000237B76002381
:100EF0003B76064BFB6107F10C031846FFF744FDF8
:100F000000BF2037BD4680BD30100008B90E000874
:100F100080B500AF104B9B690F4A43F00403936107
:100F20000D4B9B690C4A43F0080393610A4B9B6984
:100F3000094A43F010039361FFF778F9FFF7CCFFFC
:100F40000648FFF739FB1E20FFF798FFFFF72DF942
:100F50000120FFF793FFFBE7001002403C10000860
:100F60000D488546AFF300800C480D490D4A00231B
:100F700002E0D458C4500433C4188C42F9D30A4A4E
:100F80000A4C002301E013600432A242FBD300F0BC
:100F900011F8FFF7BDFFFEE7002800200000002049
:100FA000000000204C10000800000020600000201D
:100FB000FEE7000070B500260C4D0D4C641BA4101C
:100FC000A64209D100F01AF800260A4D0A4C641B0B
:100FD000A410A64205D170BD55F8043B98470136D0
:100FE000EEE755F8043B98470136F2E74410000855
:100FF000441000084410000848100008F8B500BF6D
:10100000F8BC08BC9E467047F8B500BFF8BC08BCE9
:041010009E46704741
:1010140045585449395042392049532052656C652A
:1010240061736564205F7C2D0000000009000000EE
:10103400000C0140000217004865795F7C2D000018
:04104400550100084A
:04104800310100086A
:0400000508000F617F
:00000001FF
