:020000040800F2
:1000000000280020150F0008650F0008650F000884
:10001000650F0008650F0008650F0008000000006C
:10002000000000000000000000000000650F000854
:10003000650F000800000000650F0008650F00084C
:10004000650F0008650F0008650F0008650F0008C0
:10005000650F0008650F0008710100089501000890
:10006000B9010008DD01000801020008650F000861
:10007000650F0008650F0008650F0008650F000890
:10008000650F0008650F0008650F0008650F000880
:10009000650F0008650F0008650F000825020008BD
:1000A000650F0008650F0008650F0008650F000860
:1000B000650F0008650F0008650F0008650F000850
:1000C000650F0008650F0008650F0008C5090008E6
:1000D000210A0008B10D0008C50D0008D90D00085F
:1000E000CD020008650F000800000000650F000841
:1000F000650F0008650F0008650F0008650F000810
:10010000650F0008650F0008650F0008650F0008FF
:10011000650F0008650F0008650F0008650F0008EF
:10012000650F0008650F0008650F0008650F0008DF
:1001300010B5054C237833B9044B13B10448AFF321
:1001400000800123237010BD00000020000000008B
:10015000B00F000808B5034B1BB103490348AFF3C8
:10016000008008BD0000000004000020B00F00085F
:1001700080B500AF054B5B69044A43F0010353614E
:10018000034B1B68984700BF80BD00BF00040140BF
:100190003000002080B500AF054B5B69044A43F096
:1001A00002035361034B5B68984700BF80BD00BFEB
:1001B000000401403000002080B500AF054B5B69B2
:1001C000044A43F004035361034B9B68984700BF04
:1001D00080BD00BF000401403000002080B500AFAA
:1001E000054B5B69044A43F008035361034BDB682A
:1001F000984700BF80BD00BF0004014030000020D0
:1002000080B500AF054B5B69044A43F010035361AE
:10021000034B1B69984700BF80BD00BF000401402D
:100220003000002080B500AF264B5B6903F020034F
:10023000002B08D0234B5B69224A43F02003536113
:10024000214B5B6998471F4B5B6903F04003002B10
:1002500008D01C4B5B691B4A43F0400353611A4BA7
:100260009B699847174B5B6903F08003002B08D00C
:10027000144B5B69134A43F080035361124BDB69F3
:100280009847104B5B6903F48073002B08D00E4B2A
:100290001B6A98470B4B5B690A4A43F480735361AE
:1002A000084B5B6903F40073002B08D0054B5B69B6
:1002B000044A43F400735361034B5B6A984700BFE1
:1002C00080BD00BF000401403000002080B500AFB9
:1002D0002D4B5B6903F48063002B08D02A4B5B69CC
:1002E000294A43F480635361284B9B6A9847264B05
:1002F0005B6903F40063002B08D0234B5B69224A3F
:1003000043F400635361214BDB6A98471E4B5B69E2
:1003100003F48053002B08D01B4B5B691A4A43F44B
:1003200080535361194B1B6B9847174B5B6903F460
:100330000053002B08D0144B5B69134A43F400535D
:100340005361124B5B6B98470F4B5B6903F480431F
:10035000002B08D00C4B5B690B4A43F4804353617C
:100360000A4B9B6B9847084B5B6903F40043002BD7
:1003700008D0054B5B69044A43F400435361034BC7
:10038000DB6B984700BF80BD0004014030000020B7
:1003900080B483B000AF0346FB80FB88B3F5004F09
:1003A00000F0A580B3F5004F00F3A380B3F5804FB4
:1003B00000F09B80B3F5804F00F39B80B3F5005FA6
:1003C00000F09180B3F5005F00F39380B3F5805F98
:1003D00000F08780B3F5805F00F38B80B3F5006F8A
:1003E0007DD0B3F5006F00F38480B3F5806F74D0D7
:1003F000B3F5806F7DDCB3F5007F6CD0B3F5007F83
:1004000077DCB3F5807F64D0B3F5807F71DC802B1F
:100410005DD0802B6DDC202B48DC002B69DD013B9F
:100420001F2B66D801A252F823F000BFB3040008C6
:10043000B7040008F3040008BB040008F304000834
:10044000F3040008F3040008BF040008F3040008E4
:10045000F3040008F3040008F3040008F3040008A0
:10046000F3040008F3040008C3040008F3040008C0
:10047000F3040008F3040008F3040008F304000880
:10048000F3040008F3040008F3040008F304000870
:10049000F3040008F3040008F3040008F304000860
:1004A000F3040008F3040008C7040008402B0CD034
:1004B0001FE000231EE004231CE008231AE00C23A5
:1004C00018E0102316E0142314E0182312E01C2374
:1004D00010E000230EE004230CE008230AE00C23C4
:1004E00008E0102306E0142304E0182302E01C2394
:1004F00000E0002318460C37BD4680BC704700BFA3
:1005000090B585B000AF786039600023BB603B6870
:100510001B88FF2B01D87B6801E07B680433BB603C
:100520003B681B881846FFF733FF03461A460F2324
:100530009340DA43BB681B681A40BB681A6000230B
:10054000FB733B689B78072B0BD03B689B78062B93
:1005500007D03B689B78052B03D03B689B78042B26
:100560000ED13B689B78043B9B005AB23B68DB781A
:100570005BB213435BB2DBB203F00F03FB7338E0F3
:100580003B689B78002B03D03B689B78012B07D1FD
:100590003B689B789B00DBB203F00F03FB7328E002
:1005A0003B689B78082B09D13B689B78073BDBB203
:1005B0009B00DBB203F00F03FB731AE03B689B78F0
:1005C0009B00DBB203F00F03FB733B689B78022BAD
:1005D00007D17B68DB683A6812881A437B68DA6067
:1005E00007E07B68DB683A681288D2431A407B6870
:1005F000DA60FC7B3B681B881846FFF7C9FE0346A0
:1006000004FA03F2BB681B681A43BB681A6000BF98
:100610001437BD4690BD80B483B000AF78600B4600
:100620007B8013467B707B78012B03D17A887B68B3
:100630001A6102E07A887B685A6100BF0C37BD46B8
:1006400080BC704780B483B000AF0E4B5B689B08E2
:1006500003F00303022B0CD0022B0DD8002B02D089
:10066000012B03D008E0084B7B6005E0074B7B6063
:1006700002E0064B7B6000BF7B6818460C37BD4626
:1006800080BC70470010024000127A000024F40081
:1006900080B500AFFFF7D6FF0246054B5B681B092C
:1006A00003F00F030349CB5C22FA03F3184680BD25
:1006B00000100240D00F000880B500AFFFF7E8FF40
:1006C0000246054B5B681B0A03F007030349CB5C3A
:1006D00022FA03F3184680BD00100240C80F00083C
:1006E00080B500AFFFF7D4FF0246054B5B68DB0A1D
:1006F00003F007030349CB5C22FA03F3184680BDDD
:1007000000100240C80F000880B485B000AF7860C8
:1007100039600023FB810023BB817B68414A9342FF
:1007200009D1414A3B681360404B9B693F4A43F4FF
:10073000805393610CE07B683D4A934208D13A4A6A
:100740003B685360394BDB69384A43F48043D361DB
:10075000FB8943F04003FB813B681A88FB89134304
:10076000FB813B685A88FB891343FB813B689A886D
:10077000FB891343FB813B68DA88FB891343FB81C8
:100780003B681A89FB891343FB813B685A89FB89C3
:100790001343FB813B689B89042B04D1BB8943F045
:1007A0000403BB810FE03B689B894FF6FB729342C9
:1007B00004D1BB8923F00403BB8104E03B689A8920
:1007C000FB891343FB813B68DA89FB891343FB8177
:1007D0003B681B8A002B19D03B681A8ABB891343DC
:1007E000BB817B680F4A934206D1124B1B68114AAA
:1007F00043F00803136009E07B680D4A934205D17A
:100800000C4B1B680B4A43F010031360FA897B689A
:100810001A60BA897B685A6000BF1437BD4680BC35
:10082000704700BF003001401C0000200010024053
:100830000038004004E100E080B485B000AFF8600B
:10084000B9601346FB71FB79012B06D100BFFB6831
:100850009B6803F00203002BF9D0BB681B881A4683
:10086000FB68DA60FB79012B06D100BFFB689B684F
:1008700003F00103002BF9D0FB68DB689AB2BB6878
:100880001A8000BF1437BD4680BC704780B584B065
:1008900000AF78607B68464A934240D1454B1B6865
:1008A0001B88042B2ED1434B1B689B89042B03D040
:1008B0004FF6FB7293420CE01023BB810623BB73FF
:1008C0000123FB7307F10C0319463B48FFF718FEA1
:1008D00000BF2023BB810623BB730123FB7307F1F9
:1008E0000C0319463448FFF70BFE8023BB81062317
:1008F000BB730123FB7307F10C0319462E48FFF766
:10090000FFFD50E08023BB810623BB730123FB73F3
:1009100007F10C0319462848FFF7F2FD43E07B6816
:10092000264A93423FD1234B5B681B88042B2ED170
:10093000204B5B689B89042B03D04FF6FB729342DC
:100940000CE01023BB810623BB730123FB7307F16B
:100950000C0319461A48FFF7D3FD00BF2023BB81C3
:100960000623BB730123FB7307F10C0319461448DC
:10097000FFF7C6FD8023BB810623BB730123FB73F6
:1009800007F10C0319460E48FFF7BAFD0BE0802370
:10099000BB810623BB730123FB7307F10C031946CC
:1009A0000748FFF7ADFD00BF1037BD4680BD00BF53
:1009B000003001401C0000200008014000380040C9
:1009C000000C014080B582B000AF134B9B685B0800
:1009D00003F00103DAB23B7962F300033B710E4B83
:1009E0009B6803F00103DAB23B7962F341033B7188
:1009F000094B9B681B0903F00103DAB23B7962F3F0
:100A000082033B71054B1B685B693879984700BFCF
:100A10000837BD4680BD00BF003001401C000020EB
:100A200080B582B000AF134B9B685B0803F00103F5
:100A3000DAB23B7962F300033B710E4B9B6803F023
:100A40000103DAB23B7962F341033B71094B9B68C6
:100A50001B0903F00103DAB23B7962F382033B71B5
:100A6000054B5B685B693879984700BF0837BD461E
:100A700080BD00BF003800401C00002080B584B05D
:100A800000AF786039607B68594A934209D1594B6D
:100A90009B69584A43F480439361574A3B6813600B
:100AA0001AE07B68554A934209D1524BDB69514A9F
:100AB00043F40033D361504A3B6853600CE07B68D9
:100AC0004F4A934208D14B4BDB694A4A43F4802397
:100AD000D361494A3B6893607B68DB6843F400520A
:100AE0007B68DA607B68DB683A6812781A437B6857
:100AF000DA607B68DB683A68127A1A437B68DA60EE
:100B00007B68DB683A68527A1A437B68DA607B68F4
:100B10001B693A68927A1A437B681A617B685B6941
:100B20003A68D27A1A437B685A617B68304A9342AA
:100B300003D1FFF7D5FDF86002E0FFF7BDFDF860D7
:100B40003B685B681B01FA68B2FBF3F31901FA68B2
:100B500013469B0013449A001A443B685B689B0051
:100B6000B2FBF3F23B685B681B01F868B0FBF3F380
:100B7000642000FB03F3D31A1B01224AA2FB0323C8
:100B80005B0903F00F030B43BB607B68BA689A6094
:100B90003B681B7B002B26D07B68DB683A68127BA6
:100BA0001A437B68DA607B68114A934206D1164B80
:100BB0001B68154A43F02003136014E07B680F4A5A
:100BC000934206D1104B1B680F4A43F04003136059
:100BD00009E07B680A4A934205D10B4B1B680A4A1D
:100BE00043F08003136000BF1037BD4680BD00BFD7
:100BF0000038014000100240240000200044004062
:100C0000004800401F85EB5104E100E080B584B04E
:100C100000AF78607B683B4A934218D14FF4007371
:100C2000BB810623BB730123FB7307F10C03194639
:100C30003548FFF765FC4FF48063BB810823BB7325
:100C400007F10C0319463048FFF75AFC55E07B6862
:100C50002E4A934225D10423BB810623BB73012373
:100C6000FB7307F10C0319462748FFF749FC0823DB
:100C7000BB810823BB7307F10C0319462248FFF719
:100C80003FFC234B5B68DB7A002B36D00123BB8112
:100C90000123BB7307F10C0319461B48FFF730FC17
:100CA0002BE07B681B4A934227D14FF48063BB81C2
:100CB0000623BB730123FB7307F10C031946164887
:100CC000FFF71EFC4FF40063BB810823BB7307F1E1
:100CD0000C0319461048FFF713FC0D4B9B68DB7A99
:100CE000002B0AD04FF40053BB810123BB7307F1E3
:100CF0000C0319460848FFF703FC00BF1037BD4638
:100D000080BD00BF003801400008014000440040A1
:100D10002400002000480040000C014080B485B051
:100D200000AFF860B9601346FB71FB79012B06D167
:100D300000BFFB681B6803F08003002BF9D0FB6841
:100D4000174A93420AD1174B1B681B7A002B22D1FA
:100D5000BB681B88DAB2FB685A601CE0FB68124A69
:100D600093420AD10F4B5B681B7A002B13D1BB68EF
:100D70001B88DAB2FB685A600DE0FB680B4A9342AD
:100D800009D1084B9B681B7A002B04D1BB681B88D8
:100D9000DAB2FB685A6000BF1437BD4680BC7047AA
:100DA000003801402400002000440040004800407A
:100DB00080B500AF024B1B681B69984700BF80BD20
:100DC0002400002080B500AF024B5B681B69984788
:100DD00000BF80BD2400002080B500AF024B9B689F
:100DE0001B69984700BF80BD2400002080B582B0F9
:100DF00000AF38713B7903F00203DBB2002B0CD05B
:100E0000084B0F221A70002206490748FFF714FD0D
:100E1000012204490548FFF781FF00BF0837BD469E
:100E200080BD00BF7200002000300140003801404A
:100E300080B400AF00BFBD4680BC704780B58CB0A9
:100E400000AF2E4B9B692D4A43F0040393612B4B5B
:100E50009B692A4A43F008039361284B9B69274A00
:100E600043F0100393614FF4E1333B62002387F8B2
:100E70002730202387F82830214BFB62002387F896
:100E80002530002387F82430002387F826300C23F0
:100E90003B7707F11C0319461A48FFF7EFFD194885
:100EA000FFF7B4FE0123FB810223BB8100233B81BA
:100EB00010237B820023FB800023BB804023BB8266
:100EC000114BBB6100233B823B1D19460F48FFF7C6
:100ED0001BFC0E48FFF7DAFC10233B800423BB7099
:100EE0000123FB703B4619460948FFF709FB012225
:100EF00010210748FFF78FFBFEE700BF00100240FC
:100F0000310E000800380140ED0D000800300140AE
:100F1000000801400D488546AFF300800C480D499C
:100F20000D4A002302E0D458C4500433C4188C4244
:100F3000F9D30A4A0A4C002301E013600432A242AA
:100F4000FBD300F011F8FFF779FFFEE7002800203F
:100F50000000002000000020E80F00080000002032
:100F600074000020FEE7000070B500260C4D0D4C0B
:100F7000641BA410A64209D100F01AF800260A4DFD
:100F80000A4C641BA410A64205D170BD55F8043B61
:100F900098470136EEE755F8043B98470136F2E7EB
:100FA000E00F0008E00F0008E00F0008E40F000861
:100FB000F8B500BFF8BC08BC9E467047F8B500BF46
:080FC000F8BC08BC9E46704716
:100FC800000000000102030400000000000000000F
:080FD8000102030406070809E9
:040FE00055010008AF
:040FE40031010008CF
:0400000508000F15CB
:00000001FF
