:020000040800F2
:10000000002800204D0500089D0500089D050008FA
:100010009D0500089D0500089D05000800000000E2
:100020000000000000000000000000009D05000826
:100030009D050008000000009D0500089D050008C2
:100040009D0500089D0500089D0500089D05000808
:100050009D0500089D0500089D0500089D050008F8
:100060009D0500089D0500089D0500089D050008E8
:100070009D0500089D0500089D0500089D050008D8
:100080009D0500089D0500089D0500089D050008C8
:100090009D0500089D0500089D0500089D050008B8
:1000A0009D0500089D0500089D0500089D050008A8
:1000B0009D0500089D0500089D0500089D05000898
:1000C0009D0500089D0500089D0500089D05000888
:1000D0009D0500089D0500089D0500089D05000878
:1000E0009D0500089D050008000000009D05000812
:1000F0009D0500089D0500089D0500089D05000858
:100100009D0500089D0500089D0500089D05000847
:100110009D0500089D0500089D0500089D05000837
:100120009D0500089D0500089D0500089D05000827
:1001300010B5054C237833B9044B13B10448AFF321
:1001400000800123237010BD00000020000000008B
:10015000E805000808B5034B1BB103490348AFF39A
:10016000008008BD0000000004000020E805000831
:1001700080B483B000AF0346FB80FB88B3F5004F2B
:1001800000F0A580B3F5004F00F3A380B3F5804FD6
:1001900000F09B80B3F5804F00F39B80B3F5005FC8
:1001A00000F09180B3F5005F00F39380B3F5805FBA
:1001B00000F08780B3F5805F00F38B80B3F5006FAC
:1001C0007DD0B3F5006F00F38480B3F5806F74D0F9
:1001D000B3F5806F7DDCB3F5007F6CD0B3F5007FA5
:1001E00077DCB3F5807F64D0B3F5807F71DC802B42
:1001F0005DD0802B6DDC202B48DC002B69DD013BC2
:100200001F2B66D801A252F823F000BF930200080A
:1002100097020008D30200089B020008D3020008DE
:10022000D3020008D30200089F020008D30200088E
:10023000D3020008D3020008D3020008D30200084A
:10024000D3020008D3020008A3020008D30200086A
:10025000D3020008D3020008D3020008D30200082A
:10026000D3020008D3020008D3020008D30200081A
:10027000D3020008D3020008D3020008D30200080A
:10028000D3020008D3020008A7020008402B0CD0BC
:100290001FE000231EE004231CE008231AE00C23C7
:1002A00018E0102316E0142314E0182312E01C2396
:1002B00010E000230EE004230CE008230AE00C23E6
:1002C00008E0102306E0142304E0182302E01C23B6
:1002D00000E0002318460C37BD4680BC704700BFC5
:1002E00090B585B000AF786039600023BB603B6893
:1002F0001B88FF2B01D87B6801E07B680433BB605F
:100300003B681B881846FFF733FF03461A460F2346
:100310009340DA43BB681B681A40BB681A6000232D
:10032000FB733B689B78072B0BD03B689B78062BB5
:1003300007D03B689B78052B03D03B689B78042B48
:100340000ED13B689B78043B9B005AB23B68DB783C
:100350005BB213435BB2DBB203F00F03FB732EE01F
:100360003B689B78022B0ED17B68DB683A68128869
:100370001A437B68DA603B689B789B00DBB203F032
:100380000F03FB731BE03B689B78032B10D17B684A
:10039000DB683A681288D2431A407B68DA603B68AF
:1003A0009B78013B9B00DBB203F00F03FB7306E07D
:1003B0003B689B789B00DBB203F00F03FB73FC7B75
:1003C0003B681B881846FFF7D3FE034604FA03F286
:1003D000BB681B681A43BB681A6000BF1437BD4670
:1003E00090BD80B483B000AF78600B467B807B68A3
:1003F0009A687B881340002B01D0012300E0002382
:1004000018460C37BD4680BC704780B483B000AF3F
:1004100078600B467B807B68DA687B885A407B6813
:10042000DA6000BF0C37BD4680BC704780B485B031
:1004300000AF78600023FB600BE00023BB6002E0AC
:10044000BB680133BB60BB68FE2BF9D9FB68013385
:10045000FB60FA687B689A42EFD300BF00BF143795
:10046000BD4680BC7047000080B582B000AF01235C
:10047000BB710223BB803B1D19461448FFF730FFB8
:100480000123BB714FF40053BB803B1D19460F483D
:10049000FFF726FF0423BB710223BB800123FB71FE
:1004A0003B1D19460A48FFF71BFF0423BB714FF49D
:1004B0000053BB800123FB713B1D19460448FFF725
:1004C0000FFF00BF0837BD4680BD00BF00080140D8
:1004D000000C014080B500AF194B9B69184A43F0EE
:1004E00004039361164B9B69154A43F0080393611B
:1004F000FFF7BAFF02211348FFF773FF0346002BF3
:100500000BD102211048FFF780FF00BF02210D48E8
:10051000FFF767FF0346002BF8D04FF4005109485E
:10052000FFF75FFF0346012B04D14FF4005106484B
:10053000FFF76BFF4FF47A70FFF778FFDAE700BF41
:100540000010024000080140000C01400D488546A3
:10055000AFF300800C480D490D4A002302E0D45847
:10056000C4500433C4188C42F9D30A4A0A4C0023FD
:1005700001E013600432A242FBD300F011F8FFF750
:10058000A9FFFEE700280020000000200000002056
:1005900008060008000000201C000020FEE7000004
:1005A00070B500260C4D0D4C641BA410A64209D159
:1005B00000F01AF800260A4D0A4C641BA410A6424B
:1005C00005D170BD55F8043B98470136EEE755F864
:1005D000043B98470136F2E70006000800060008D1
:1005E0000006000804060008F8B500BFF8BC08BC07
:1005F0009E467047F8B500BFF8BC08BC9E467047E1
:040600005501000898
:0406040031010008B8
:040000050800054D9D
:00000001FF
