:020000040800F2
:1000000000280020ED0F00083D1000083D100008FA
:100010003D1000083D1000083D10000800000000E1
:100020000000000000000000000000003D1000087B
:100030003D100008000000003D1000083D100008C1
:100040003D1000083D1000083D1000083D1000085C
:100050003D1000083D100008A5020008C902000874
:10006000ED02000811030008350300083D100008E8
:100070003D1000083D1000083D1000083D1000082C
:100080003D1000083D1000083D1000083D1000081C
:100090003D1000083D1000083D10000859030008FD
:1000A0003D1000083D1000083D1000083D100008FC
:1000B0003D1000083D1000083D1000083D100008EC
:1000C0003D1000083D1000083D100008550E0008C6
:1000D000B10E00080D0F0008210F0008350F0008B1
:1000E000010400083D100008000000003D10000859
:1000F0003D1000083D1000083D1000083D100008AC
:100100003D1000083D1000083D1000083D1000089B
:100110003D1000083D1000083D1000083D1000088B
:100120003D1000083D1000083D1000083D1000087B
:1001300010B5054C237833B9044B13B10448AFF321
:1001400000800123237010BD00000020000000008B
:100150008810000808B5034B1BB103490348AFF3EF
:10016000008008BD00000000040000208810000886
:1001700080B588B000AF0023BB614FF480637B6122
:10018000094B3B6000237B600023FB610023BB60C5
:10019000064800F0F7FB3B461946044800F0D6FA43
:1001A00000BF2037BD4680BDA0860100005400403E
:1001B00080B5C8B002AF07F10C03186007F108035F
:1001C00019603B1D1A60002387F8173107F10C03F3
:1001D0001B681B0ADAB207F114031A7007F10C034B
:1001E0001B68DAB207F114035A70022387F817313B
:1001F00011E097F81731023B07F1080212681A4420
:1002000097F81731117807F11402D15497F8173184
:10021000013387F8173197F817213B1D1B6802330C
:100220009A42E6D33B1D1B68023307F114020021FA
:100230000191002100912A21044800F063FC002371
:10024000184607F58C77BD4680BD00BF00540040BE
:1002500080B588B002AFF860B9607A60FB681B0AAD
:10026000DBB23B75FB68DBB27B7507F11402002340
:1002700001930123009302232A21094800F042FC44
:1002800001230193002300937B68BA682A21044864
:1002900000F0C2FB002318461837BD4680BD00BFE2
:1002A0000054004080B500AF054B5B69044A43F041
:1002B00001035361034B1B68984700BF80BD00BF1B
:1002C000000401407000002080B500AF054B5B6961
:1002D000044A43F002035361034B5B68984700BF35
:1002E00080BD00BF000401407000002080B500AF59
:1002F000054B5B69044A43F004035361034B9B685D
:10030000984700BF80BD00BF00040140700000207E
:1003100080B500AF054B5B69044A43F008035361A5
:10032000034BDB68984700BF80BD00BF000401405D
:100330007000002080B500AF054B5B69044A43F0B4
:1003400010035361034B1B69984700BF80BD00BF7A
:10035000000401407000002080B500AF264B5B69AF
:1003600003F02003002B08D0234B5B69224A43F0A3
:1003700020035361214B5B6998471F4B5B6903F076
:100380004003002B08D01C4B5B691B4A43F0400321
:1003900053611A4B9B699847174B5B6903F08003C5
:1003A000002B08D0144B5B69134A43F08003536160
:1003B000124BDB699847104B5B6903F48073002B89
:1003C00008D00E4B1B6A98470B4B5B690A4A43F4F3
:1003D00080735361084B5B6903F40073002B08D0F2
:1003E000054B5B69044A43F400735361034B5B6A3A
:1003F000984700BF80BD00BF00040140700000208E
:1004000080B500AF2D4B5B6903F48063002B08D0EF
:100410002A4B5B69294A43F480635361284B9B6AEA
:100420009847264B5B6903F40063002B08D0234BED
:100430005B69224A43F400635361214BDB6A9847AE
:100440001E4B5B6903F48053002B08D01B4B5B6988
:100450001A4A43F480535361194B1B6B9847174B4F
:100460005B6903F40053002B08D0144B5B69134AFB
:1004700043F400535361124B5B6B98470F4B5B691E
:1004800003F48043002B08D00C4B5B690B4A43F408
:10049000804353610A4B9B6B9847084B5B6903F49D
:1004A0000043002B08D0054B5B69044A43F400432A
:1004B0005361034BDB6B984700BF80BD00040140D4
:1004C0007000002080B483B000AF0346FB80FB883F
:1004D000B3F5004F00F0A580B3F5004F00F3A38003
:1004E000B3F5804F00F09B80B3F5804F00F39B8005
:1004F000B3F5005F00F09180B3F5005F00F39380E7
:10050000B3F5805F00F08780B3F5805F00F38B80E8
:10051000B3F5006F7DD0B3F5006F00F38480B3F5C1
:10052000806F74D0B3F5806F7DDCB3F5007F6CD045
:10053000B3F5007F77DCB3F5807F64D0B3F5807FBF
:1005400071DC802B5DD0802B6DDC202B48DC002BF8
:1005500069DD013B1F2B66D801A252F823F000BFD2
:10056000E7050008EB05000827060008EF0500086E
:10057000270600082706000827060008F3050008DC
:100580002706000827060008270600082706000897
:10059000270600082706000827060008F7050008B8
:1005A0002706000827060008270600082706000877
:1005B0002706000827060008270600082706000867
:1005C0002706000827060008270600082706000857
:1005D000270600082706000827060008FB05000874
:1005E000402B0CD01FE000231EE004231CE0082356
:1005F0001AE00C2318E0102316E0142314E018234B
:1006000012E01C2310E000230EE004230CE008237A
:100610000AE00C2308E0102306E0142304E018236A
:1006200002E01C2300E0002318460C37BD4680BCC6
:10063000704700BF90B585B000AF78603960002387
:10064000BB603B681B88FF2B01D87B6801E07B689F
:100650000433BB603B681B881846FFF733FF034633
:100660001A460F239340DA43BB681B681A40BB68E5
:100670001A600023FB733B689B78072B0BD03B6809
:100680009B78062B07D03B689B78052B03D03B68F3
:100690009B78042B0ED13B689B78043B9B005AB29D
:1006A0003B68DB785BB213435BB2DBB203F00F0352
:1006B000FB7338E03B689B78002B03D03B689B784A
:1006C000012B07D13B689B789B00DBB203F00F0343
:1006D000FB7328E03B689B78082B09D13B689B782B
:1006E000073BDBB29B00DBB203F00F03FB731AE0A6
:1006F0003B689B789B00DBB203F00F03FB733B6806
:100700009B78022B07D17B68DB683A6812881A4312
:100710007B68DA6007E07B68DB683A681288D2435E
:100720001A407B68DA60FC7B3B681B881846FFF741
:10073000C9FE034604FA03F2BB681B681A43BB6890
:100740001A6000BF1437BD4690BD0000B0B586B03A
:1007500000AF786039600023FB820023BB82804BAE
:100760003B610023FB817B687E4A934210D17E4A25
:100770003B6814461D460FCD0FC495E80F0084E872
:100780000F007A4BDB69794A43F40013D36114E01C
:100790007B68774A934210D1734B3A6803F1200487
:1007A00015460FCD0FC495E80F0084E80F006F4B7E
:1007B000DB696E4A43F48003D3613B685B68002BBE
:1007C00040F087807B685B68FB82FB8A23F03F03F5
:1007D000FB8200F02BFB38613B69664AA2FB0323D6
:1007E0009B0CBB82FA8ABB8A1343FB82FA8A7B6822
:1007F0005A607B681B6823F001027B681A60002343
:10080000FB823B681B684CF25032934204D03B6839
:100810001B68594A934215D13B681B685B003A69D3
:10082000B2FBF3F3FB817B68DB69FB82FA8AFB890D
:100830001343FB82FA8A7B68DA61BB8A01331A466A
:100840007B681A620023FB827B681B68FB823B6823
:100850005B699AB23B689B699BB213439AB23B684F
:100860009B689BB213439AB23B685B689BB213438D
:100870009AB2FB8A1343FB827B681A68FB8A1A438D
:100880007B681A600023FB823B689B89012B0DD19A
:100890000123FB823B681B8A5B001AB2B7F9163052
:1008A00013431BB2FB82FA8A7B68DA600023FB8267
:1008B0003B68DB895B001AB2B7F9163013431BB2F1
:1008C000FB823B685A8AFB8A1343FB82FA8A7B6865
:1008D0009A603B68DB69002B38D07B685B6843F427
:1008E00080627B685A607B685B6843F480727B68D7
:1008F0005A607B685B6843F400727B685A607B686F
:10090000184A93420CD11D4B1B681C4A43F001034B
:1009100013601B4B1B681A4A43F0004313600FE03F
:100920007B68134A93420BD1144B1B68134A43F064
:1009300002031360114B1B68104A43F00403136059
:100940007B6800225A617B6800229A617B681B6881
:1009500043F001027B681A6000BF1837BD46B0BD86
:1009600000127A00005400401C00002000100240D9
:100970000058004083DE1B43A086010004E100E034
:1009800000E100E080B584B000AF78607B681F4A6A
:10099000934218D10723BB734023BB810123FB7310
:1009A00007F10C0319461A48FFF744FE0723BB73EF
:1009B0008023BB810123FB7307F10C031946144804
:1009C000FFF738FE1DE07B68124A934219D10723D6
:1009D000BB734FF48063BB810123FB7307F10C03EE
:1009E00019460B48FFF726FE0723BB734FF400633D
:1009F000BB810123FB7307F10C0319460448FFF781
:100A000019FE00BF1037BD4680BD00BF0054004036
:100A1000000C01400058004080B586B000AFF8607F
:100A20007A603B600B467B81FB68344A934214BF7B
:100A300001230023DBB2FB7400237B6197F8243091
:100A40001A460121F86800F0B3F800BF0121F868E8
:100A500000F0D6F80346002BF8D07B890122194616
:100A6000F86800F053F900BF0221F86800F0C8F8F8
:100A70000346002BF8D00121F86800F081F93B68AB
:100A8000002B1CD03B687B6112E000BF0521F86899
:100A900000F0B6F80346002BF8D0FB681B69DAB209
:100AA0007B681A707B6801337B607B69013B7B61EB
:100AB0007B69012BE9DC0021F86800F061F997F807
:100AC0002030002B03D10121F86800F03EF9FB7CB7
:100AD0000B4A5B01134414331B68B3F5806F04D1D8
:100AE0000121F86800F04CF903E00021F86800F0FB
:100AF00047F900BF1837BD4680BD00BF0054004015
:100B00001C00002080B586B000AFF8607A603B60C2
:100B10000B467B8100237B6197F824301A46012124
:100B2000F86800F045F800BF0121F86800F068F8A7
:100B30000346002BF8D07B8900221946F86800F0A4
:100B4000E5F800BF0221F86800F05AF80346002BD0
:100B5000F8D000BF1549F86800F052F80346002BA2
:100B6000F8D000237B6111E07B697A6813441B781D
:100B70001A46FB681A6100BF0321F86800F040F8CC
:100B80000346002BF8D07B6901337B617B693A68AF
:100B90009A42E9D897F82030002B03D10121F86858
:100BA00000F0D3F800BF1837BD4680BD80000700B5
:100BB00080B582B000AF78600B46FB701346BB7007
:100BC000BB78012B07D000BF0021786800F018F82F
:100BD0000346002BF8D1FB78002B06D07B681B68FE
:100BE00043F480727B681A6005E07B681B6823F41D
:100BF00080727B681A6000BF0837BD4680BD000068
:100C000080B489B000AF786039600023BB610023F5
:100C10007B6100233B610023FB773B68052B11D8E8
:100C20003B68052B6AD801A252F823F04F0C00084C
:100C3000670C00087F0C0008CD0C0008CD0C0008E4
:100C4000E50C00083B68304A934224D056E07B68AC
:100C50009B6903F00203002B02D00123FB774DE0D8
:100C60000023FB774AE07B685B6903F00103002BFC
:100C700002D00123FB7741E00023FB773EE07B6855
:100C80005B6903F00203002B02D00123FB7735E000
:100C90000023FB7732E07B685B69BB617B689B6903
:100CA0007B617B691B047B61BA697B69134323F019
:100CB0007F433B613A693B6813403A689A4202D1EC
:100CC0000123FB771AE00023FB7717E07B685B6961
:100CD00003F08003002B02D00123FB770EE00023FA
:100CE000FB770BE07B685B6903F04003002B02D0CD
:100CF0000123FB7701E00023FB7700BFFB7F184651
:100D00002437BD4680BC70478000070080B483B0A4
:100D100000AF78600B467B8013467B707B885B005E
:100D20007B807B78002B04D07B8843F001037B80A1
:100D300003E07B8823F001037B807A887B681A615B
:100D400000BF0C37BD4680BC704780B483B000AF95
:100D500078600B46FB70FB78002B06D07B681B6825
:100D600043F400727B681A6005E07B681B6823F41B
:100D700000727B681A6000BF0C37BD4680BC7047AC
:100D800080B483B000AF78600B46FB70FB78012B1A
:100D900006D17B681B6843F480627B681A6005E0BB
:100DA0007B681B6823F480627B681A6000BF0C3785
:100DB000BD4680BC7047000080B483B000AF0E4BCE
:100DC0005B689B0803F00303022B0CD0022B0DD8A9
:100DD000002B02D0012B03D008E0084B7B6005E01C
:100DE000074B7B6002E0064B7B6000BF7B681846C8
:100DF0000C37BD4680BC70470010024000127A00DC
:100E00000024F40080B500AFFFF7D6FF0246054B83
:100E10005B681B0903F00F030349CB5C22FA03F361
:100E2000184680BD00100240B010000880B500AF29
:100E3000FFF7E8FF0246054B5B681B0A03F0070358
:100E40000349CB5C22FA03F3184680BD0010024030
:100E5000A810000880B582B000AF134B9B685B08F8
:100E600003F00103DAB23B7962F300033B710E4BEE
:100E70009B6803F00103DAB23B7962F341033B71F3
:100E8000094B9B681B0903F00103DAB23B7962F35B
:100E900082033B71054B1B685B693879984700BF3B
:100EA0000837BD4680BD00BF003001405C00002017
:100EB00080B582B000AF134B9B685B0803F0010361
:100EC000DAB23B7962F300033B710E4B9B6803F08F
:100ED0000103DAB23B7962F341033B71094B9B6832
:100EE0001B0903F00103DAB23B7962F382033B7121
:100EF000054B5B685B693879984700BF0837BD468A
:100F000080BD00BF003800405C00002080B500AF0D
:100F1000024B1B681B69984700BF80BD640000201E
:100F200080B500AF024B5B681B69984700BF80BD6E
:100F30006400002080B500AF024B9B681B69984796
:100F400000BF80BD6400002080B584B000AF254B99
:100F50009B69244A43F004039361224B9B69214A15
:100F600043F0080393611F4B9B691E4A43F0100333
:100F700093611D4A07F1080392E8030018600433E7
:100F8000198002330A0C1A7000233B603B1D0021BC
:100F90000A461A800A469A70FFF7EAF807F1080332
:100FA00007221946AF20FFF703F93B4607221946EF
:100FB000AF20FFF74DF90A233B720B237B720C2302
:100FC000BB720D23FB7207F1080304221946FF20B0
:100FD000FFF7EEF83B4604221946FF20FFF738F9E9
:100FE000FEE700BF00100240A01000080D48854633
:100FF000AFF300800C480D490D4A002302E0D4589D
:10100000C4500433C4188C42F9D30A4A0A4C002352
:1010100001E013600432A242FBD300F011F8FFF7A5
:1010200093FFFEE7002800200000002000000020C1
:10103000C810000800000020B0000020FEE70000FB
:1010400070B500260C4D0D4C641BA410A64209D1AE
:1010500000F01AF800260A4D0A4C641BA410A642A0
:1010600005D170BD55F8043B98470136EEE755F8B9
:10107000043B98470136F2E7C0100008C010000892
:10108000C0100008C4100008F8B500BFF8BC08BCC8
:101090009E467047F8B500BFF8BC08BC9E46704736
:1010A000010203040506070000000000010203041A
:1010B0000000000000000000010203040607080908
:0410C00055010008CE
:0410C40031010008EE
:0400000508000FEDF3
:00000001FF
